{
  "contractName": "Multivaria",
  "abi": [
    {
      "inputs": [],
      "stateMutability": "nonpayable",
      "type": "constructor"
    },
    {
      "anonymous": false,
      "inputs": [
        {
          "indexed": true,
          "internalType": "address",
          "name": "account",
          "type": "address"
        },
        {
          "indexed": true,
          "internalType": "address",
          "name": "sender",
          "type": "address"
        }
      ],
      "name": "AdminApproved",
      "type": "event"
    },
    {
      "anonymous": false,
      "inputs": [
        {
          "indexed": true,
          "internalType": "address",
          "name": "account",
          "type": "address"
        },
        {
          "indexed": true,
          "internalType": "address",
          "name": "sender",
          "type": "address"
        }
      ],
      "name": "AdminRevoked",
      "type": "event"
    },
    {
      "anonymous": false,
      "inputs": [
        {
          "indexed": true,
          "internalType": "address",
          "name": "account",
          "type": "address"
        },
        {
          "indexed": true,
          "internalType": "address",
          "name": "operator",
          "type": "address"
        },
        {
          "indexed": false,
          "internalType": "bool",
          "name": "approved",
          "type": "bool"
        }
      ],
      "name": "ApprovalForAll",
      "type": "event"
    },
    {
      "anonymous": false,
      "inputs": [
        {
          "indexed": true,
          "internalType": "address",
          "name": "previousOwner",
          "type": "address"
        },
        {
          "indexed": true,
          "internalType": "address",
          "name": "newOwner",
          "type": "address"
        }
      ],
      "name": "OwnershipTransferred",
      "type": "event"
    },
    {
      "anonymous": false,
      "inputs": [
        {
          "indexed": true,
          "internalType": "address",
          "name": "operator",
          "type": "address"
        },
        {
          "indexed": true,
          "internalType": "address",
          "name": "from",
          "type": "address"
        },
        {
          "indexed": true,
          "internalType": "address",
          "name": "to",
          "type": "address"
        },
        {
          "indexed": false,
          "internalType": "uint256[]",
          "name": "ids",
          "type": "uint256[]"
        },
        {
          "indexed": false,
          "internalType": "uint256[]",
          "name": "values",
          "type": "uint256[]"
        }
      ],
      "name": "TransferBatch",
      "type": "event"
    },
    {
      "anonymous": false,
      "inputs": [
        {
          "indexed": true,
          "internalType": "address",
          "name": "operator",
          "type": "address"
        },
        {
          "indexed": true,
          "internalType": "address",
          "name": "from",
          "type": "address"
        },
        {
          "indexed": true,
          "internalType": "address",
          "name": "to",
          "type": "address"
        },
        {
          "indexed": false,
          "internalType": "uint256",
          "name": "id",
          "type": "uint256"
        },
        {
          "indexed": false,
          "internalType": "uint256",
          "name": "value",
          "type": "uint256"
        }
      ],
      "name": "TransferSingle",
      "type": "event"
    },
    {
      "anonymous": false,
      "inputs": [
        {
          "indexed": false,
          "internalType": "string",
          "name": "value",
          "type": "string"
        },
        {
          "indexed": true,
          "internalType": "uint256",
          "name": "id",
          "type": "uint256"
        }
      ],
      "name": "URI",
      "type": "event"
    },
    {
      "inputs": [],
      "name": "_advancedCardShifted",
      "outputs": [
        {
          "internalType": "bool",
          "name": "",
          "type": "bool"
        }
      ],
      "stateMutability": "view",
      "type": "function"
    },
    {
      "inputs": [],
      "name": "_editionsLeft",
      "outputs": [
        {
          "internalType": "uint256",
          "name": "",
          "type": "uint256"
        }
      ],
      "stateMutability": "view",
      "type": "function"
    },
    {
      "inputs": [],
      "name": "_name",
      "outputs": [
        {
          "internalType": "string",
          "name": "",
          "type": "string"
        }
      ],
      "stateMutability": "view",
      "type": "function"
    },
    {
      "inputs": [],
      "name": "_shiftActivated",
      "outputs": [
        {
          "internalType": "bool",
          "name": "",
          "type": "bool"
        }
      ],
      "stateMutability": "view",
      "type": "function"
    },
    {
      "inputs": [],
      "name": "_test",
      "outputs": [
        {
          "internalType": "uint256",
          "name": "",
          "type": "uint256"
        }
      ],
      "stateMutability": "view",
      "type": "function"
    },
    {
      "inputs": [
        {
          "internalType": "address",
          "name": "admin",
          "type": "address"
        }
      ],
      "name": "approveAdmin",
      "outputs": [],
      "stateMutability": "nonpayable",
      "type": "function"
    },
    {
      "inputs": [
        {
          "internalType": "address",
          "name": "account",
          "type": "address"
        },
        {
          "internalType": "uint256",
          "name": "id",
          "type": "uint256"
        }
      ],
      "name": "balanceOf",
      "outputs": [
        {
          "internalType": "uint256",
          "name": "",
          "type": "uint256"
        }
      ],
      "stateMutability": "view",
      "type": "function"
    },
    {
      "inputs": [
        {
          "internalType": "address[]",
          "name": "accounts",
          "type": "address[]"
        },
        {
          "internalType": "uint256[]",
          "name": "ids",
          "type": "uint256[]"
        }
      ],
      "name": "balanceOfBatch",
      "outputs": [
        {
          "internalType": "uint256[]",
          "name": "",
          "type": "uint256[]"
        }
      ],
      "stateMutability": "view",
      "type": "function"
    },
    {
      "inputs": [],
      "name": "getAdmins",
      "outputs": [
        {
          "internalType": "address[]",
          "name": "admins",
          "type": "address[]"
        }
      ],
      "stateMutability": "view",
      "type": "function"
    },
    {
      "inputs": [
        {
          "internalType": "address",
          "name": "admin",
          "type": "address"
        }
      ],
      "name": "isAdmin",
      "outputs": [
        {
          "internalType": "bool",
          "name": "",
          "type": "bool"
        }
      ],
      "stateMutability": "view",
      "type": "function"
    },
    {
      "inputs": [
        {
          "internalType": "address",
          "name": "account",
          "type": "address"
        },
        {
          "internalType": "address",
          "name": "operator",
          "type": "address"
        }
      ],
      "name": "isApprovedForAll",
      "outputs": [
        {
          "internalType": "bool",
          "name": "",
          "type": "bool"
        }
      ],
      "stateMutability": "view",
      "type": "function"
    },
    {
      "inputs": [],
      "name": "owner",
      "outputs": [
        {
          "internalType": "address",
          "name": "",
          "type": "address"
        }
      ],
      "stateMutability": "view",
      "type": "function"
    },
    {
      "inputs": [],
      "name": "renounceOwnership",
      "outputs": [],
      "stateMutability": "nonpayable",
      "type": "function"
    },
    {
      "inputs": [
        {
          "internalType": "address",
          "name": "admin",
          "type": "address"
        }
      ],
      "name": "revokeAdmin",
      "outputs": [],
      "stateMutability": "nonpayable",
      "type": "function"
    },
    {
      "inputs": [
        {
          "internalType": "address",
          "name": "from",
          "type": "address"
        },
        {
          "internalType": "address",
          "name": "to",
          "type": "address"
        },
        {
          "internalType": "uint256[]",
          "name": "ids",
          "type": "uint256[]"
        },
        {
          "internalType": "uint256[]",
          "name": "amounts",
          "type": "uint256[]"
        },
        {
          "internalType": "bytes",
          "name": "data",
          "type": "bytes"
        }
      ],
      "name": "safeBatchTransferFrom",
      "outputs": [],
      "stateMutability": "nonpayable",
      "type": "function"
    },
    {
      "inputs": [
        {
          "internalType": "address",
          "name": "from",
          "type": "address"
        },
        {
          "internalType": "address",
          "name": "to",
          "type": "address"
        },
        {
          "internalType": "uint256",
          "name": "id",
          "type": "uint256"
        },
        {
          "internalType": "uint256",
          "name": "amount",
          "type": "uint256"
        },
        {
          "internalType": "bytes",
          "name": "data",
          "type": "bytes"
        }
      ],
      "name": "safeTransferFrom",
      "outputs": [],
      "stateMutability": "nonpayable",
      "type": "function"
    },
    {
      "inputs": [
        {
          "internalType": "address",
          "name": "operator",
          "type": "address"
        },
        {
          "internalType": "bool",
          "name": "approved",
          "type": "bool"
        }
      ],
      "name": "setApprovalForAll",
      "outputs": [],
      "stateMutability": "nonpayable",
      "type": "function"
    },
    {
      "inputs": [
        {
          "internalType": "address",
          "name": "newOwner",
          "type": "address"
        }
      ],
      "name": "transferOwnership",
      "outputs": [],
      "stateMutability": "nonpayable",
      "type": "function"
    },
    {
      "inputs": [
        {
          "internalType": "bytes4",
          "name": "interfaceId",
          "type": "bytes4"
        }
      ],
      "name": "supportsInterface",
      "outputs": [
        {
          "internalType": "bool",
          "name": "",
          "type": "bool"
        }
      ],
      "stateMutability": "view",
      "type": "function"
    },
    {
      "inputs": [],
      "name": "name",
      "outputs": [
        {
          "internalType": "string",
          "name": "",
          "type": "string"
        }
      ],
      "stateMutability": "view",
      "type": "function"
    },
    {
      "inputs": [],
      "name": "getPseudoRndTier",
      "outputs": [
        {
          "internalType": "uint256",
          "name": "",
          "type": "uint256"
        }
      ],
      "stateMutability": "nonpayable",
      "type": "function"
    },
    {
      "inputs": [
        {
          "internalType": "address",
          "name": "to",
          "type": "address"
        },
        {
          "internalType": "uint256",
          "name": "id",
          "type": "uint256"
        },
        {
          "internalType": "uint256",
          "name": "amount",
          "type": "uint256"
        }
      ],
      "name": "mint",
      "outputs": [],
      "stateMutability": "nonpayable",
      "type": "function"
    },
    {
      "inputs": [
        {
          "internalType": "address",
          "name": "to",
          "type": "address"
        },
        {
          "internalType": "uint256[]",
          "name": "ids",
          "type": "uint256[]"
        },
        {
          "internalType": "uint256[]",
          "name": "amounts",
          "type": "uint256[]"
        }
      ],
      "name": "mintBatch",
      "outputs": [],
      "stateMutability": "nonpayable",
      "type": "function"
    },
    {
      "inputs": [],
      "name": "toggleShiftActivated",
      "outputs": [],
      "stateMutability": "nonpayable",
      "type": "function"
    },
    {
      "inputs": [
        {
          "internalType": "uint256",
          "name": "multivariaId",
          "type": "uint256"
        },
        {
          "internalType": "uint256",
          "name": "shiftCardId",
          "type": "uint256"
        },
        {
          "internalType": "uint256",
          "name": "shiftedTier",
          "type": "uint256"
        }
      ],
      "name": "adminShift",
      "outputs": [],
      "stateMutability": "nonpayable",
      "type": "function"
    },
    {
      "inputs": [],
      "name": "shift",
      "outputs": [],
      "stateMutability": "nonpayable",
      "type": "function"
    },
    {
      "inputs": [
        {
          "internalType": "uint256",
          "name": "multivariaId",
          "type": "uint256"
        }
      ],
      "name": "uniqueShift",
      "outputs": [],
      "stateMutability": "nonpayable",
      "type": "function"
    },
    {
      "inputs": [
        {
          "internalType": "string",
          "name": "updatedURI",
          "type": "string"
        }
      ],
      "name": "setURI",
      "outputs": [],
      "stateMutability": "nonpayable",
      "type": "function"
    },
    {
      "inputs": [
        {
          "internalType": "uint256",
          "name": "tokenId",
          "type": "uint256"
        }
      ],
      "name": "uri",
      "outputs": [
        {
          "internalType": "string",
          "name": "",
          "type": "string"
        }
      ],
      "stateMutability": "view",
      "type": "function"
    },
    {
      "inputs": [
        {
          "internalType": "uint256",
          "name": "tokenId",
          "type": "uint256"
        },
        {
          "internalType": "uint256",
          "name": "quantity",
          "type": "uint256"
        }
      ],
      "name": "burn",
      "outputs": [],
      "stateMutability": "nonpayable",
      "type": "function"
    },
    {
      "inputs": [
        {
          "internalType": "uint256[]",
          "name": "ids",
          "type": "uint256[]"
        },
        {
          "internalType": "uint256[]",
          "name": "amounts",
          "type": "uint256[]"
        }
      ],
      "name": "burnBatch",
      "outputs": [],
      "stateMutability": "nonpayable",
      "type": "function"
    },
    {
      "inputs": [
        {
          "internalType": "address payable",
          "name": "_recipient",
          "type": "address"
        },
        {
          "internalType": "uint256",
          "name": "_royaltyPerCent",
          "type": "uint256"
        }
      ],
      "name": "setRoyalties",
      "outputs": [],
      "stateMutability": "nonpayable",
      "type": "function"
    },
    {
      "inputs": [
        {
          "internalType": "uint256",
          "name": "salePrice",
          "type": "uint256"
        }
      ],
      "name": "royaltyInfo",
      "outputs": [
        {
          "internalType": "address",
          "name": "",
          "type": "address"
        },
        {
          "internalType": "uint256",
          "name": "",
          "type": "uint256"
        }
      ],
      "stateMutability": "view",
      "type": "function"
    },
    {
      "inputs": [
        {
          "internalType": "address",
          "name": "recipient",
          "type": "address"
        }
      ],
      "name": "withdraw",
      "outputs": [],
      "stateMutability": "nonpayable",
      "type": "function"
    }
  ],
  "bytecode": "0x608060405260c86009556040518060400160405280600a81526020017f4d756c746976617269610000000000000000000000000000000000000000000081525060159080519060200190620000569291906200025e565b503480156200006457600080fd5b506040518060200160405280600081525062000095620000896200017660201b60201c565b6200017e60201b60201c565b620000a6816200024260201b60201c565b5033600660006101000a81548173ffffffffffffffffffffffffffffffffffffffff021916908373ffffffffffffffffffffffffffffffffffffffff160217905550600a8081905550604051806101400160405280600260ff168152602001600560ff168152602001600a60ff168152602001601460ff168152602001602360ff168152602001603760ff168152602001605060ff168152602001606e60ff168152602001609660ff16815260200160c860ff16815250600b90600a6200016f929190620002ef565b50620003bc565b600033905090565b60008060009054906101000a900473ffffffffffffffffffffffffffffffffffffffff169050816000806101000a81548173ffffffffffffffffffffffffffffffffffffffff021916908373ffffffffffffffffffffffffffffffffffffffff1602179055508173ffffffffffffffffffffffffffffffffffffffff168173ffffffffffffffffffffffffffffffffffffffff167f8be0079c531659141344cd1fd0a4f28419497f9722a3daafe3b4186f6b6457e060405160405180910390a35050565b80600390805190602001906200025a9291906200025e565b5050565b8280546200026c9062000387565b90600052602060002090601f016020900481019282620002905760008555620002dc565b82601f10620002ab57805160ff1916838001178555620002dc565b82800160010185558215620002dc579182015b82811115620002db578251825591602001919060010190620002be565b5b509050620002eb919062000339565b5090565b82600a810192821562000326579160200282015b8281111562000325578251829060ff1690559160200191906001019062000303565b5b50905062000335919062000339565b5090565b5b80821115620003545760008160009055506001016200033a565b5090565b7f4e487b7100000000000000000000000000000000000000000000000000000000600052602260045260246000fd5b60006002820490506001821680620003a057607f821691505b602082108103620003b657620003b562000358565b5b50919050565b6158c880620003cc6000396000f3fe608060405234801561001057600080fd5b50600436106102055760003560e01c8063715018a61161011a578063a6246d09116100ad578063d6a09c761161007c578063d6a09c7614610589578063d81d0a15146105a7578063e985e9c5146105c3578063f242432a146105f3578063f2fde38b1461060f57610205565b8063a6246d0914610500578063b390c0ab1461051e578063cef6d3681461053a578063d28d88521461056b57610205565b80638da5cb5b116100e95780638da5cb5b1461048a57806399fbb93d146104a85780639c8c8466146104c6578063a22cb465146104e457610205565b8063715018a61461042a5780637b021e221461043457806383ca4b6f146104525780638c7ea24b1461046e57610205565b80632d3456701161019d5780634e1273f41161016c5780634e1273f41461039c57806351cff8d9146103cc57806356e7e7eb146103e85780636d73e669146103f25780636e1c209a1461040e57610205565b80632d3456701461032a5780632eb2c2d61461034657806331ae450b146103625780633923047d1461038057610205565b80630e89341c116101d95780630e89341c146102a457806312fc41ca146102d4578063156e29f6146102de57806324d7806c146102fa57610205565b8062fdd58e1461020a57806301ffc9a71461023a57806302fe53051461026a57806306fdde0314610286575b600080fd5b610224600480360381019061021f919061381b565b61062b565b604051610231919061386a565b60405180910390f35b610254600480360381019061024f91906138dd565b6106f4565b6040516102619190613925565b60405180910390f35b610284600480360381019061027f91906139a5565b61078e565b005b61028e610834565b60405161029b9190613a8b565b60405180910390f35b6102be60048036038101906102b99190613aad565b6108c6565b6040516102cb9190613a8b565b60405180910390f35b6102dc610950565b005b6102f860048036038101906102f39190613ada565b610aa6565b005b610314600480360381019061030f9190613b2d565b610b7c565b6040516103219190613925565b60405180910390f35b610344600480360381019061033f9190613b2d565b610bd6565b005b610360600480360381019061035b9190613d4d565b610c6a565b005b61036a610d0b565b6040516103779190613eda565b60405180910390f35b61039a60048036038101906103959190613efc565b610ded565b005b6103b660048036038101906103b19190614012565b610fb2565b6040516103c39190614148565b60405180910390f35b6103e660048036038101906103e19190613b2d565b6110cb565b005b6103f06111a5565b005b61040c60048036038101906104079190613b2d565b611261565b005b61042860048036038101906104239190613aad565b6112f4565b005b610432611459565b005b61043c61146d565b604051610449919061386a565b60405180910390f35b61046c6004803603810190610467919061416a565b611473565b005b61048860048036038101906104839190614220565b611482565b005b61049261155e565b60405161049f919061426f565b60405180910390f35b6104b0611587565b6040516104bd9190613925565b60405180910390f35b6104ce61159a565b6040516104db9190613925565b60405180910390f35b6104fe60048036038101906104f991906142b6565b6115ad565b005b6105086115c3565b604051610515919061386a565b60405180910390f35b610538600480360381019061053391906142f6565b6115c9565b005b610554600480360381019061054f9190613aad565b6115d8565b604051610562929190614336565b60405180910390f35b610573611684565b6040516105809190613a8b565b60405180910390f35b610591611712565b60405161059e919061386a565b60405180910390f35b6105c160048036038101906105bc919061435f565b611871565b005b6105dd60048036038101906105d891906143ea565b611947565b6040516105ea9190613925565b60405180910390f35b61060d6004803603810190610608919061442a565b6119db565b005b61062960048036038101906106249190613b2d565b611a7c565b005b60008073ffffffffffffffffffffffffffffffffffffffff168373ffffffffffffffffffffffffffffffffffffffff160361069b576040517f08c379a000000000000000000000000000000000000000000000000000000000815260040161069290614533565b60405180910390fd5b6001600083815260200190815260200160002060008473ffffffffffffffffffffffffffffffffffffffff1673ffffffffffffffffffffffffffffffffffffffff16815260200190815260200160002054905092915050565b60006106ff82611aff565b8061070f575061070e82611b79565b5b8061077757507f2a55205a000000000000000000000000000000000000000000000000000000007bffffffffffffffffffffffffffffffffffffffffffffffffffffffff1916827bffffffffffffffffffffffffffffffffffffffffffffffffffffffff1916145b80610787575061078682611aff565b5b9050919050565b3373ffffffffffffffffffffffffffffffffffffffff166107ad61155e565b73ffffffffffffffffffffffffffffffffffffffff1614806107df57506107de336004611c5b90919063ffffffff16565b5b61081e576040517f08c379a0000000000000000000000000000000000000000000000000000000008152600401610815906145c5565b60405180910390fd5b81816016919061082f929190613690565b505050565b60606015805461084390614614565b80601f016020809104026020016040519081016040528092919081815260200182805461086f90614614565b80156108bc5780601f10610891576101008083540402835291602001916108bc565b820191906000526020600020905b81548152906001019060200180831161089f57829003601f168201915b5050505050905090565b60606001821480156108e55750601760019054906101000a900460ff16155b1561091d5760166108f6600e611c8b565b604051602001610907929190614761565b604051602081830303815290604052905061094b565b601661092883611c8b565b604051602001610939929190614761565b60405160208183030381529060405290505b919050565b601760009054906101000a900460ff1661099f576040517f08c379a0000000000000000000000000000000000000000000000000000000008152600401610996906147dc565b60405180910390fd5b60016109ac33600c61062b565b10156109ed576040517f08c379a00000000000000000000000000000000000000000000000000000000081526004016109e49061486e565b60405180910390fd5b60016109fa33600d61062b565b1015610a3b576040517f08c379a0000000000000000000000000000000000000000000000000000000008152600401610a32906148da565b60405180910390fd5b6000610a45611712565b9050610a5433600c6001611deb565b610a6133600d6001611deb565b610aa3338260016040518060400160405280600381526020017f3078300000000000000000000000000000000000000000000000000000000000815250612033565b50565b3373ffffffffffffffffffffffffffffffffffffffff16610ac561155e565b73ffffffffffffffffffffffffffffffffffffffff161480610af75750610af6336004611c5b90919063ffffffff16565b5b610b36576040517f08c379a0000000000000000000000000000000000000000000000000000000008152600401610b2d906145c5565b60405180910390fd5b610b778383836040518060400160405280600381526020017f3078300000000000000000000000000000000000000000000000000000000000815250612033565b505050565b60008173ffffffffffffffffffffffffffffffffffffffff16610b9d61155e565b73ffffffffffffffffffffffffffffffffffffffff161480610bcf5750610bce826004611c5b90919063ffffffff16565b5b9050919050565b610bde6121e4565b610bf2816004611c5b90919063ffffffff16565b15610c67573373ffffffffffffffffffffffffffffffffffffffff168173ffffffffffffffffffffffffffffffffffffffff167f7c0c3c84c67c85fcac635147348bfe374c24a1a93d0366d1cfe9d8853cbf89d560405160405180910390a3610c6581600461226290919063ffffffff16565b505b50565b610c72612292565b73ffffffffffffffffffffffffffffffffffffffff168573ffffffffffffffffffffffffffffffffffffffff161480610cb85750610cb785610cb2612292565b611947565b5b610cf7576040517f08c379a0000000000000000000000000000000000000000000000000000000008152600401610cee9061496c565b60405180910390fd5b610d04858585858561229a565b5050505050565b6060610d1760046125be565b67ffffffffffffffff811115610d3057610d2f613b5a565b5b604051908082528060200260200182016040528015610d5e5781602001602082028036833780820191505090505b50905060005b610d6e60046125be565b811015610de957610d898160046125d390919063ffffffff16565b828281518110610d9c57610d9b61498c565b5b602002602001019073ffffffffffffffffffffffffffffffffffffffff16908173ffffffffffffffffffffffffffffffffffffffff16815250508080610de1906149ea565b915050610d64565b5090565b3373ffffffffffffffffffffffffffffffffffffffff16610e0c61155e565b73ffffffffffffffffffffffffffffffffffffffff161480610e3e5750610e3d336004611c5b90919063ffffffff16565b5b610e7d576040517f08c379a0000000000000000000000000000000000000000000000000000000008152600401610e74906145c5565b60405180910390fd5b600c8311158015610e8e5750600183115b610ecd576040517f08c379a0000000000000000000000000000000000000000000000000000000008152600401610ec490614a7e565b60405180910390fd5b600d8214610f10576040517f08c379a0000000000000000000000000000000000000000000000000000000008152600401610f0790614aea565b60405180910390fd5b600c8110610f53576040517f08c379a0000000000000000000000000000000000000000000000000000000008152600401610f4a90614b56565b60405180910390fd5b610f5f33846001611deb565b610f6b33836001611deb565b610fad338260016040518060400160405280600381526020017f3078300000000000000000000000000000000000000000000000000000000000815250612033565b505050565b60608151835114610ff8576040517f08c379a0000000000000000000000000000000000000000000000000000000008152600401610fef90614be8565b60405180910390fd5b6000835167ffffffffffffffff81111561101557611014613b5a565b5b6040519080825280602002602001820160405280156110435781602001602082028036833780820191505090505b50905060005b84518110156110c0576110908582815181106110685761106761498c565b5b60200260200101518583815181106110835761108261498c565b5b602002602001015161062b565b8282815181106110a3576110a261498c565b5b602002602001018181525050806110b9906149ea565b9050611049565b508091505092915050565b3373ffffffffffffffffffffffffffffffffffffffff166110ea61155e565b73ffffffffffffffffffffffffffffffffffffffff16148061111c575061111b336004611c5b90919063ffffffff16565b5b61115b576040517f08c379a0000000000000000000000000000000000000000000000000000000008152600401611152906145c5565b60405180910390fd5b8073ffffffffffffffffffffffffffffffffffffffff166108fc479081150290604051600060405180830381858888f193505050501580156111a1573d6000803e3d6000fd5b5050565b3373ffffffffffffffffffffffffffffffffffffffff166111c461155e565b73ffffffffffffffffffffffffffffffffffffffff1614806111f657506111f5336004611c5b90919063ffffffff16565b5b611235576040517f08c379a000000000000000000000000000000000000000000000000000000000815260040161122c906145c5565b60405180910390fd5b601760009054906101000a900460ff1615601760006101000a81548160ff021916908315150217905550565b6112696121e4565b61127d816004611c5b90919063ffffffff16565b6112f1573373ffffffffffffffffffffffffffffffffffffffff168173ffffffffffffffffffffffffffffffffffffffff167f7e1a1a08d52e4ba0e21554733d66165fd5151f99460116223d9e3a608eec5cb160405160405180910390a36112ef8160046125ed90919063ffffffff16565b505b50565b601760009054906101000a900460ff16611343576040517f08c379a000000000000000000000000000000000000000000000000000000000815260040161133a906147dc565b60405180910390fd5b600c8111158015611355575060028110155b611394576040517f08c379a000000000000000000000000000000000000000000000000000000000815260040161138b90614c7a565b60405180910390fd5b60016113a0338361062b565b10156113e1576040517f08c379a00000000000000000000000000000000000000000000000000000000081526004016113d890614ce6565b60405180910390fd5b60016113ee33600161062b565b101561142f576040517f08c379a000000000000000000000000000000000000000000000000000000000815260040161142690614d78565b60405180910390fd5b6001601760016101000a81548160ff02191690831515021790555061145633826001611deb565b50565b6114616121e4565b61146b600061261d565b565b60095481565b61147e3383836126e1565b5050565b3373ffffffffffffffffffffffffffffffffffffffff166114a161155e565b73ffffffffffffffffffffffffffffffffffffffff1614806114d357506114d2336004611c5b90919063ffffffff16565b5b611512576040517f08c379a0000000000000000000000000000000000000000000000000000000008152600401611509906145c5565b60405180910390fd5b81600660006101000a81548173ffffffffffffffffffffffffffffffffffffffff021916908373ffffffffffffffffffffffffffffffffffffffff16021790555080600a819055505050565b60008060009054906101000a900473ffffffffffffffffffffffffffffffffffffffff16905090565b601760019054906101000a900460ff1681565b601760009054906101000a900460ff1681565b6115bf6115b8612292565b83836129b1565b5050565b60185481565b6115d4338383611deb565b5050565b600080600073ffffffffffffffffffffffffffffffffffffffff16600660009054906101000a900473ffffffffffffffffffffffffffffffffffffffff1673ffffffffffffffffffffffffffffffffffffffff161461167757600660009054906101000a900473ffffffffffffffffffffffffffffffffffffffff166064600a54856116649190614d98565b61166e9190614e21565b9150915061167f565b600080915091505b915091565b6015805461169190614614565b80601f01602080910402602001604051908101604052809291908181526020018280546116bd90614614565b801561170a5780601f106116df5761010080835404028352916020019161170a565b820191906000526020600020905b8154815290600101906020018083116116ed57829003601f168201915b505050505081565b600080600090506000600b600a806020026040519081016040528092919082600a8015611754576020028201915b815481526020019060010190808311611740575b5050505050905060008060095490506000814233604051602001611779929190614ebb565b6040516020818303038152906040528051906020012060001c61179c9190614ee7565b905060005b6001600a6117af9190614f18565b8111611837578481600a81106117c8576117c761498c565b5b6020020151821080156117db5750600084145b156117f457600195506002816117f19190614f4c565b93505b8515611824578481600a811061180d5761180c61498c565b5b60200201805180919061181f90614fa2565b815250505b808061182f906149ea565b9150506117a1565b50818061184390614fa2565b92505083600b90600a611857929190613716565b508160098190555082601881905550829550505050505090565b3373ffffffffffffffffffffffffffffffffffffffff1661189061155e565b73ffffffffffffffffffffffffffffffffffffffff1614806118c257506118c1336004611c5b90919063ffffffff16565b5b611901576040517f08c379a00000000000000000000000000000000000000000000000000000000081526004016118f8906145c5565b60405180910390fd5b6119428383836040518060400160405280600381526020017f3078300000000000000000000000000000000000000000000000000000000000815250612b1d565b505050565b6000600260008473ffffffffffffffffffffffffffffffffffffffff1673ffffffffffffffffffffffffffffffffffffffff16815260200190815260200160002060008373ffffffffffffffffffffffffffffffffffffffff1673ffffffffffffffffffffffffffffffffffffffff16815260200190815260200160002060009054906101000a900460ff16905092915050565b6119e3612292565b73ffffffffffffffffffffffffffffffffffffffff168573ffffffffffffffffffffffffffffffffffffffff161480611a295750611a2885611a23612292565b611947565b5b611a68576040517f08c379a0000000000000000000000000000000000000000000000000000000008152600401611a5f9061496c565b60405180910390fd5b611a758585858585612d4a565b5050505050565b611a846121e4565b600073ffffffffffffffffffffffffffffffffffffffff168173ffffffffffffffffffffffffffffffffffffffff1603611af3576040517f08c379a0000000000000000000000000000000000000000000000000000000008152600401611aea9061503d565b60405180910390fd5b611afc8161261d565b50565b60007f553e757e000000000000000000000000000000000000000000000000000000007bffffffffffffffffffffffffffffffffffffffffffffffffffffffff1916827bffffffffffffffffffffffffffffffffffffffffffffffffffffffff19161480611b725750611b7182611b79565b5b9050919050565b60007fd9b67a26000000000000000000000000000000000000000000000000000000007bffffffffffffffffffffffffffffffffffffffffffffffffffffffff1916827bffffffffffffffffffffffffffffffffffffffffffffffffffffffff19161480611c4457507f0e89341c000000000000000000000000000000000000000000000000000000007bffffffffffffffffffffffffffffffffffffffffffffffffffffffff1916827bffffffffffffffffffffffffffffffffffffffffffffffffffffffff1916145b80611c545750611c5382612fe8565b5b9050919050565b6000611c83836000018373ffffffffffffffffffffffffffffffffffffffff1660001b613052565b905092915050565b606060008203611cd2576040518060400160405280600181526020017f30000000000000000000000000000000000000000000000000000000000000008152509050611de6565b600082905060005b60008214611d04578080611ced906149ea565b915050600a82611cfd9190614e21565b9150611cda565b60008167ffffffffffffffff811115611d2057611d1f613b5a565b5b6040519080825280601f01601f191660200182016040528015611d525781602001600182028036833780820191505090505b5090505b60008514611ddf57600182611d6b9190614f18565b9150600a85611d7a9190614ee7565b6030611d869190614f4c565b60f81b818381518110611d9c57611d9b61498c565b5b60200101907effffffffffffffffffffffffffffffffffffffffffffffffffffffffffffff1916908160001a905350600a85611dd89190614e21565b9450611d56565b8093505050505b919050565b600073ffffffffffffffffffffffffffffffffffffffff168373ffffffffffffffffffffffffffffffffffffffff1603611e5a576040517f08c379a0000000000000000000000000000000000000000000000000000000008152600401611e51906150cf565b60405180910390fd5b6000611e64612292565b90506000611e7184613075565b90506000611e7e84613075565b9050611e9e838760008585604051806020016040528060008152506130ef565b60006001600087815260200190815260200160002060008873ffffffffffffffffffffffffffffffffffffffff1673ffffffffffffffffffffffffffffffffffffffff16815260200190815260200160002054905084811015611f36576040517f08c379a0000000000000000000000000000000000000000000000000000000008152600401611f2d90615161565b60405180910390fd5b8481036001600088815260200190815260200160002060008973ffffffffffffffffffffffffffffffffffffffff1673ffffffffffffffffffffffffffffffffffffffff16815260200190815260200160002081905550600073ffffffffffffffffffffffffffffffffffffffff168773ffffffffffffffffffffffffffffffffffffffff168573ffffffffffffffffffffffffffffffffffffffff167fc3d58168c5ae7397731d063d5bbf3d657854427343f4c083240f7aacaa2d0f628989604051612004929190615181565b60405180910390a461202a848860008686604051806020016040528060008152506130f7565b50505050505050565b600073ffffffffffffffffffffffffffffffffffffffff168473ffffffffffffffffffffffffffffffffffffffff16036120a2576040517f08c379a00000000000000000000000000000000000000000000000000000000081526004016120999061521c565b60405180910390fd5b60006120ac612292565b905060006120b985613075565b905060006120c685613075565b90506120d7836000898585896130ef565b846001600088815260200190815260200160002060008973ffffffffffffffffffffffffffffffffffffffff1673ffffffffffffffffffffffffffffffffffffffff16815260200190815260200160002060008282546121379190614f4c565b925050819055508673ffffffffffffffffffffffffffffffffffffffff16600073ffffffffffffffffffffffffffffffffffffffff168473ffffffffffffffffffffffffffffffffffffffff167fc3d58168c5ae7397731d063d5bbf3d657854427343f4c083240f7aacaa2d0f6289896040516121b5929190615181565b60405180910390a46121cc836000898585896130f7565b6121db836000898989896130ff565b50505050505050565b6121ec612292565b73ffffffffffffffffffffffffffffffffffffffff1661220a61155e565b73ffffffffffffffffffffffffffffffffffffffff1614612260576040517f08c379a000000000000000000000000000000000000000000000000000000000815260040161225790615288565b60405180910390fd5b565b600061228a836000018373ffffffffffffffffffffffffffffffffffffffff1660001b6132d6565b905092915050565b600033905090565b81518351146122de576040517f08c379a00000000000000000000000000000000000000000000000000000000081526004016122d59061531a565b60405180910390fd5b600073ffffffffffffffffffffffffffffffffffffffff168473ffffffffffffffffffffffffffffffffffffffff160361234d576040517f08c379a0000000000000000000000000000000000000000000000000000000008152600401612344906153ac565b60405180910390fd5b6000612357612292565b90506123678187878787876130ef565b60005b845181101561251b5760008582815181106123885761238761498c565b5b6020026020010151905060008583815181106123a7576123a661498c565b5b6020026020010151905060006001600084815260200190815260200160002060008b73ffffffffffffffffffffffffffffffffffffffff1673ffffffffffffffffffffffffffffffffffffffff16815260200190815260200160002054905081811015612449576040517f08c379a00000000000000000000000000000000000000000000000000000000081526004016124409061543e565b60405180910390fd5b8181036001600085815260200190815260200160002060008c73ffffffffffffffffffffffffffffffffffffffff1673ffffffffffffffffffffffffffffffffffffffff16815260200190815260200160002081905550816001600085815260200190815260200160002060008b73ffffffffffffffffffffffffffffffffffffffff1673ffffffffffffffffffffffffffffffffffffffff16815260200190815260200160002060008282546125009190614f4c565b9250508190555050505080612514906149ea565b905061236a565b508473ffffffffffffffffffffffffffffffffffffffff168673ffffffffffffffffffffffffffffffffffffffff168273ffffffffffffffffffffffffffffffffffffffff167f4a39dc06d4c0dbc64b70af90fd698a233a518aa5d07e595d983b8c0526c8f7fb878760405161259292919061545e565b60405180910390a46125a88187878787876130f7565b6125b68187878787876133ea565b505050505050565b60006125cc826000016135c1565b9050919050565b60006125e283600001836135d2565b60001c905092915050565b6000612615836000018373ffffffffffffffffffffffffffffffffffffffff1660001b6135fd565b905092915050565b60008060009054906101000a900473ffffffffffffffffffffffffffffffffffffffff169050816000806101000a81548173ffffffffffffffffffffffffffffffffffffffff021916908373ffffffffffffffffffffffffffffffffffffffff1602179055508173ffffffffffffffffffffffffffffffffffffffff168173ffffffffffffffffffffffffffffffffffffffff167f8be0079c531659141344cd1fd0a4f28419497f9722a3daafe3b4186f6b6457e060405160405180910390a35050565b600073ffffffffffffffffffffffffffffffffffffffff168373ffffffffffffffffffffffffffffffffffffffff1603612750576040517f08c379a0000000000000000000000000000000000000000000000000000000008152600401612747906150cf565b60405180910390fd5b8051825114612794576040517f08c379a000000000000000000000000000000000000000000000000000000000815260040161278b9061531a565b60405180910390fd5b600061279e612292565b90506127be818560008686604051806020016040528060008152506130ef565b60005b835181101561290d5760008482815181106127df576127de61498c565b5b6020026020010151905060008483815181106127fe576127fd61498c565b5b6020026020010151905060006001600084815260200190815260200160002060008973ffffffffffffffffffffffffffffffffffffffff1673ffffffffffffffffffffffffffffffffffffffff168152602001908152602001600020549050818110156128a0576040517f08c379a000000000000000000000000000000000000000000000000000000000815260040161289790615161565b60405180910390fd5b8181036001600085815260200190815260200160002060008a73ffffffffffffffffffffffffffffffffffffffff1673ffffffffffffffffffffffffffffffffffffffff168152602001908152602001600020819055505050508080612905906149ea565b9150506127c1565b50600073ffffffffffffffffffffffffffffffffffffffff168473ffffffffffffffffffffffffffffffffffffffff168273ffffffffffffffffffffffffffffffffffffffff167f4a39dc06d4c0dbc64b70af90fd698a233a518aa5d07e595d983b8c0526c8f7fb868660405161298592919061545e565b60405180910390a46129ab818560008686604051806020016040528060008152506130f7565b50505050565b8173ffffffffffffffffffffffffffffffffffffffff168373ffffffffffffffffffffffffffffffffffffffff1603612a1f576040517f08c379a0000000000000000000000000000000000000000000000000000000008152600401612a1690615507565b60405180910390fd5b80600260008573ffffffffffffffffffffffffffffffffffffffff1673ffffffffffffffffffffffffffffffffffffffff16815260200190815260200160002060008473ffffffffffffffffffffffffffffffffffffffff1673ffffffffffffffffffffffffffffffffffffffff16815260200190815260200160002060006101000a81548160ff0219169083151502179055508173ffffffffffffffffffffffffffffffffffffffff168373ffffffffffffffffffffffffffffffffffffffff167f17307eab39ab6107e8899845ad3d59bd9653f200f220920489ca2b5937696c3183604051612b109190613925565b60405180910390a3505050565b600073ffffffffffffffffffffffffffffffffffffffff168473ffffffffffffffffffffffffffffffffffffffff1603612b8c576040517f08c379a0000000000000000000000000000000000000000000000000000000008152600401612b839061521c565b60405180910390fd5b8151835114612bd0576040517f08c379a0000000000000000000000000000000000000000000000000000000008152600401612bc79061531a565b60405180910390fd5b6000612bda612292565b9050612beb816000878787876130ef565b60005b8451811015612ca557838181518110612c0a57612c0961498c565b5b602002602001015160016000878481518110612c2957612c2861498c565b5b6020026020010151815260200190815260200160002060008873ffffffffffffffffffffffffffffffffffffffff1673ffffffffffffffffffffffffffffffffffffffff1681526020019081526020016000206000828254612c8b9190614f4c565b925050819055508080612c9d906149ea565b915050612bee565b508473ffffffffffffffffffffffffffffffffffffffff16600073ffffffffffffffffffffffffffffffffffffffff168273ffffffffffffffffffffffffffffffffffffffff167f4a39dc06d4c0dbc64b70af90fd698a233a518aa5d07e595d983b8c0526c8f7fb8787604051612d1d92919061545e565b60405180910390a4612d34816000878787876130f7565b612d43816000878787876133ea565b5050505050565b600073ffffffffffffffffffffffffffffffffffffffff168473ffffffffffffffffffffffffffffffffffffffff1603612db9576040517f08c379a0000000000000000000000000000000000000000000000000000000008152600401612db0906153ac565b60405180910390fd5b6000612dc3612292565b90506000612dd085613075565b90506000612ddd85613075565b9050612ded8389898585896130ef565b60006001600088815260200190815260200160002060008a73ffffffffffffffffffffffffffffffffffffffff1673ffffffffffffffffffffffffffffffffffffffff16815260200190815260200160002054905085811015612e85576040517f08c379a0000000000000000000000000000000000000000000000000000000008152600401612e7c9061543e565b60405180910390fd5b8581036001600089815260200190815260200160002060008b73ffffffffffffffffffffffffffffffffffffffff1673ffffffffffffffffffffffffffffffffffffffff16815260200190815260200160002081905550856001600089815260200190815260200160002060008a73ffffffffffffffffffffffffffffffffffffffff1673ffffffffffffffffffffffffffffffffffffffff1681526020019081526020016000206000828254612f3c9190614f4c565b925050819055508773ffffffffffffffffffffffffffffffffffffffff168973ffffffffffffffffffffffffffffffffffffffff168573ffffffffffffffffffffffffffffffffffffffff167fc3d58168c5ae7397731d063d5bbf3d657854427343f4c083240f7aacaa2d0f628a8a604051612fb9929190615181565b60405180910390a4612fcf848a8a86868a6130f7565b612fdd848a8a8a8a8a6130ff565b505050505050505050565b60007f01ffc9a7000000000000000000000000000000000000000000000000000000007bffffffffffffffffffffffffffffffffffffffffffffffffffffffff1916827bffffffffffffffffffffffffffffffffffffffffffffffffffffffff1916149050919050565b600080836001016000848152602001908152602001600020541415905092915050565b60606000600167ffffffffffffffff81111561309457613093613b5a565b5b6040519080825280602002602001820160405280156130c25781602001602082028036833780820191505090505b50905082816000815181106130da576130d961498c565b5b60200260200101818152505080915050919050565b505050505050565b505050505050565b61311e8473ffffffffffffffffffffffffffffffffffffffff1661366d565b156132ce578373ffffffffffffffffffffffffffffffffffffffff1663f23a6e6187878686866040518663ffffffff1660e01b815260040161316495949392919061557c565b6020604051808303816000875af19250505080156131a057506040513d601f19601f8201168201806040525081019061319d91906155eb565b60015b613245576131ac615625565b806308c379a00361320857506131c0615647565b806131cb575061320a565b806040517f08c379a00000000000000000000000000000000000000000000000000000000081526004016131ff9190613a8b565b60405180910390fd5b505b6040517f08c379a000000000000000000000000000000000000000000000000000000000815260040161323c90615749565b60405180910390fd5b63f23a6e6160e01b7bffffffffffffffffffffffffffffffffffffffffffffffffffffffff1916817bffffffffffffffffffffffffffffffffffffffffffffffffffffffff1916146132cc576040517f08c379a00000000000000000000000000000000000000000000000000000000081526004016132c3906157db565b60405180910390fd5b505b505050505050565b600080836001016000848152602001908152602001600020549050600081146133de5760006001826133089190614f18565b90506000600186600001805490506133209190614f18565b905081811461338f5760008660000182815481106133415761334061498c565b5b90600052602060002001549050808760000184815481106133655761336461498c565b5b90600052602060002001819055508387600101600083815260200190815260200160002081905550505b856000018054806133a3576133a26157fb565b5b6001900381819060005260206000200160009055905585600101600086815260200190815260200160002060009055600193505050506133e4565b60009150505b92915050565b6134098473ffffffffffffffffffffffffffffffffffffffff1661366d565b156135b9578373ffffffffffffffffffffffffffffffffffffffff1663bc197c8187878686866040518663ffffffff1660e01b815260040161344f95949392919061582a565b6020604051808303816000875af192505050801561348b57506040513d601f19601f8201168201806040525081019061348891906155eb565b60015b61353057613497615625565b806308c379a0036134f357506134ab615647565b806134b657506134f5565b806040517f08c379a00000000000000000000000000000000000000000000000000000000081526004016134ea9190613a8b565b60405180910390fd5b505b6040517f08c379a000000000000000000000000000000000000000000000000000000000815260040161352790615749565b60405180910390fd5b63bc197c8160e01b7bffffffffffffffffffffffffffffffffffffffffffffffffffffffff1916817bffffffffffffffffffffffffffffffffffffffffffffffffffffffff1916146135b7576040517f08c379a00000000000000000000000000000000000000000000000000000000081526004016135ae906157db565b60405180910390fd5b505b505050505050565b600081600001805490509050919050565b60008260000182815481106135ea576135e961498c565b5b9060005260206000200154905092915050565b60006136098383613052565b613662578260000182908060018154018082558091505060019003906000526020600020016000909190919091505582600001805490508360010160008481526020019081526020016000208190555060019050613667565b600090505b92915050565b6000808273ffffffffffffffffffffffffffffffffffffffff163b119050919050565b82805461369c90614614565b90600052602060002090601f0160209004810192826136be5760008555613705565b82601f106136d757803560ff1916838001178555613705565b82800160010185558215613705579182015b828111156137045782358255916020019190600101906136e9565b5b5090506137129190613756565b5090565b82600a8101928215613745579160200282015b82811115613744578251825591602001919060010190613729565b5b5090506137529190613756565b5090565b5b8082111561376f576000816000905550600101613757565b5090565b6000604051905090565b600080fd5b600080fd5b600073ffffffffffffffffffffffffffffffffffffffff82169050919050565b60006137b282613787565b9050919050565b6137c2816137a7565b81146137cd57600080fd5b50565b6000813590506137df816137b9565b92915050565b6000819050919050565b6137f8816137e5565b811461380357600080fd5b50565b600081359050613815816137ef565b92915050565b600080604083850312156138325761383161377d565b5b6000613840858286016137d0565b925050602061385185828601613806565b9150509250929050565b613864816137e5565b82525050565b600060208201905061387f600083018461385b565b92915050565b60007fffffffff0000000000000000000000000000000000000000000000000000000082169050919050565b6138ba81613885565b81146138c557600080fd5b50565b6000813590506138d7816138b1565b92915050565b6000602082840312156138f3576138f261377d565b5b6000613901848285016138c8565b91505092915050565b60008115159050919050565b61391f8161390a565b82525050565b600060208201905061393a6000830184613916565b92915050565b600080fd5b600080fd5b600080fd5b60008083601f84011261396557613964613940565b5b8235905067ffffffffffffffff81111561398257613981613945565b5b60208301915083600182028301111561399e5761399d61394a565b5b9250929050565b600080602083850312156139bc576139bb61377d565b5b600083013567ffffffffffffffff8111156139da576139d9613782565b5b6139e68582860161394f565b92509250509250929050565b600081519050919050565b600082825260208201905092915050565b60005b83811015613a2c578082015181840152602081019050613a11565b83811115613a3b576000848401525b50505050565b6000601f19601f8301169050919050565b6000613a5d826139f2565b613a6781856139fd565b9350613a77818560208601613a0e565b613a8081613a41565b840191505092915050565b60006020820190508181036000830152613aa58184613a52565b905092915050565b600060208284031215613ac357613ac261377d565b5b6000613ad184828501613806565b91505092915050565b600080600060608486031215613af357613af261377d565b5b6000613b01868287016137d0565b9350506020613b1286828701613806565b9250506040613b2386828701613806565b9150509250925092565b600060208284031215613b4357613b4261377d565b5b6000613b51848285016137d0565b91505092915050565b7f4e487b7100000000000000000000000000000000000000000000000000000000600052604160045260246000fd5b613b9282613a41565b810181811067ffffffffffffffff82111715613bb157613bb0613b5a565b5b80604052505050565b6000613bc4613773565b9050613bd08282613b89565b919050565b600067ffffffffffffffff821115613bf057613bef613b5a565b5b602082029050602081019050919050565b6000613c14613c0f84613bd5565b613bba565b90508083825260208201905060208402830185811115613c3757613c3661394a565b5b835b81811015613c605780613c4c8882613806565b845260208401935050602081019050613c39565b5050509392505050565b600082601f830112613c7f57613c7e613940565b5b8135613c8f848260208601613c01565b91505092915050565b600080fd5b600067ffffffffffffffff821115613cb857613cb7613b5a565b5b613cc182613a41565b9050602081019050919050565b82818337600083830152505050565b6000613cf0613ceb84613c9d565b613bba565b905082815260208101848484011115613d0c57613d0b613c98565b5b613d17848285613cce565b509392505050565b600082601f830112613d3457613d33613940565b5b8135613d44848260208601613cdd565b91505092915050565b600080600080600060a08688031215613d6957613d6861377d565b5b6000613d77888289016137d0565b9550506020613d88888289016137d0565b945050604086013567ffffffffffffffff811115613da957613da8613782565b5b613db588828901613c6a565b935050606086013567ffffffffffffffff811115613dd657613dd5613782565b5b613de288828901613c6a565b925050608086013567ffffffffffffffff811115613e0357613e02613782565b5b613e0f88828901613d1f565b9150509295509295909350565b600081519050919050565b600082825260208201905092915050565b6000819050602082019050919050565b613e51816137a7565b82525050565b6000613e638383613e48565b60208301905092915050565b6000602082019050919050565b6000613e8782613e1c565b613e918185613e27565b9350613e9c83613e38565b8060005b83811015613ecd578151613eb48882613e57565b9750613ebf83613e6f565b925050600181019050613ea0565b5085935050505092915050565b60006020820190508181036000830152613ef48184613e7c565b905092915050565b600080600060608486031215613f1557613f1461377d565b5b6000613f2386828701613806565b9350506020613f3486828701613806565b9250506040613f4586828701613806565b9150509250925092565b600067ffffffffffffffff821115613f6a57613f69613b5a565b5b602082029050602081019050919050565b6000613f8e613f8984613f4f565b613bba565b90508083825260208201905060208402830185811115613fb157613fb061394a565b5b835b81811015613fda5780613fc688826137d0565b845260208401935050602081019050613fb3565b5050509392505050565b600082601f830112613ff957613ff8613940565b5b8135614009848260208601613f7b565b91505092915050565b600080604083850312156140295761402861377d565b5b600083013567ffffffffffffffff81111561404757614046613782565b5b61405385828601613fe4565b925050602083013567ffffffffffffffff81111561407457614073613782565b5b61408085828601613c6a565b9150509250929050565b600081519050919050565b600082825260208201905092915050565b6000819050602082019050919050565b6140bf816137e5565b82525050565b60006140d183836140b6565b60208301905092915050565b6000602082019050919050565b60006140f58261408a565b6140ff8185614095565b935061410a836140a6565b8060005b8381101561413b57815161412288826140c5565b975061412d836140dd565b92505060018101905061410e565b5085935050505092915050565b6000602082019050818103600083015261416281846140ea565b905092915050565b600080604083850312156141815761418061377d565b5b600083013567ffffffffffffffff81111561419f5761419e613782565b5b6141ab85828601613c6a565b925050602083013567ffffffffffffffff8111156141cc576141cb613782565b5b6141d885828601613c6a565b9150509250929050565b60006141ed82613787565b9050919050565b6141fd816141e2565b811461420857600080fd5b50565b60008135905061421a816141f4565b92915050565b600080604083850312156142375761423661377d565b5b60006142458582860161420b565b925050602061425685828601613806565b9150509250929050565b614269816137a7565b82525050565b60006020820190506142846000830184614260565b92915050565b6142938161390a565b811461429e57600080fd5b50565b6000813590506142b08161428a565b92915050565b600080604083850312156142cd576142cc61377d565b5b60006142db858286016137d0565b92505060206142ec858286016142a1565b9150509250929050565b6000806040838503121561430d5761430c61377d565b5b600061431b85828601613806565b925050602061432c85828601613806565b9150509250929050565b600060408201905061434b6000830185614260565b614358602083018461385b565b9392505050565b6000806000606084860312156143785761437761377d565b5b6000614386868287016137d0565b935050602084013567ffffffffffffffff8111156143a7576143a6613782565b5b6143b386828701613c6a565b925050604084013567ffffffffffffffff8111156143d4576143d3613782565b5b6143e086828701613c6a565b9150509250925092565b600080604083850312156144015761440061377d565b5b600061440f858286016137d0565b9250506020614420858286016137d0565b9150509250929050565b600080600080600060a086880312156144465761444561377d565b5b6000614454888289016137d0565b9550506020614465888289016137d0565b945050604061447688828901613806565b935050606061448788828901613806565b925050608086013567ffffffffffffffff8111156144a8576144a7613782565b5b6144b488828901613d1f565b9150509295509295909350565b7f455243313135353a2061646472657373207a65726f206973206e6f742061207660008201527f616c6964206f776e657200000000000000000000000000000000000000000000602082015250565b600061451d602a836139fd565b9150614528826144c1565b604082019050919050565b6000602082019050818103600083015261454c81614510565b9050919050565b7f41646d696e436f6e74726f6c3a204d757374206265206f776e6572206f72206160008201527f646d696e00000000000000000000000000000000000000000000000000000000602082015250565b60006145af6024836139fd565b91506145ba82614553565b604082019050919050565b600060208201905081810360008301526145de816145a2565b9050919050565b7f4e487b7100000000000000000000000000000000000000000000000000000000600052602260045260246000fd5b6000600282049050600182168061462c57607f821691505b60208210810361463f5761463e6145e5565b5b50919050565b600081905092915050565b60008190508160005260206000209050919050565b6000815461467281614614565b61467c8186614645565b9450600182166000811461469757600181146146a8576146db565b60ff198316865281860193506146db565b6146b185614650565b60005b838110156146d3578154818901526001820191506020810190506146b4565b838801955050505b50505092915050565b60006146ef826139f2565b6146f98185614645565b9350614709818560208601613a0e565b80840191505092915050565b7f2e6a736f6e000000000000000000000000000000000000000000000000000000600082015250565b600061474b600583614645565b915061475682614715565b600582019050919050565b600061476d8285614665565b915061477982846146e4565b91506147848261473e565b91508190509392505050565b7f53686966742064697361626c6564000000000000000000000000000000000000600082015250565b60006147c6600e836139fd565b91506147d182614790565b602082019050919050565b600060208201905081810360008301526147f5816147b9565b9050919050565b7f4d756c746976617269612054696572203132206d697373696e6720666f72207460008201527f6865207368696674000000000000000000000000000000000000000000000000602082015250565b60006148586028836139fd565b9150614863826147fc565b604082019050919050565b600060208201905081810360008301526148878161484b565b9050919050565b7f53686966742063617264206d697373696e6720666f7220746865207368696674600082015250565b60006148c46020836139fd565b91506148cf8261488e565b602082019050919050565b600060208201905081810360008301526148f3816148b7565b9050919050565b7f455243313135353a2063616c6c6572206973206e6f7420746f6b656e206f776e60008201527f6572206e6f7220617070726f7665640000000000000000000000000000000000602082015250565b6000614956602f836139fd565b9150614961826148fa565b604082019050919050565b6000602082019050818103600083015261498581614949565b9050919050565b7f4e487b7100000000000000000000000000000000000000000000000000000000600052603260045260246000fd5b7f4e487b7100000000000000000000000000000000000000000000000000000000600052601160045260246000fd5b60006149f5826137e5565b91507fffffffffffffffffffffffffffffffffffffffffffffffffffffffffffffffff8203614a2757614a266149bb565b5b600182019050919050565b7f496e636f7272656374204d756c74697661726961496400000000000000000000600082015250565b6000614a686016836139fd565b9150614a7382614a32565b602082019050919050565b60006020820190508181036000830152614a9781614a5b565b9050919050565b7f496e636f72726563742053686966744361726449640000000000000000000000600082015250565b6000614ad46015836139fd565b9150614adf82614a9e565b602082019050919050565b60006020820190508181036000830152614b0381614ac7565b9050919050565b7f496e636f72726563742073686966746564546965720000000000000000000000600082015250565b6000614b406015836139fd565b9150614b4b82614b0a565b602082019050919050565b60006020820190508181036000830152614b6f81614b33565b9050919050565b7f455243313135353a206163636f756e747320616e6420696473206c656e67746860008201527f206d69736d617463680000000000000000000000000000000000000000000000602082015250565b6000614bd26029836139fd565b9150614bdd82614b76565b604082019050919050565b60006020820190508181036000830152614c0181614bc5565b9050919050565b7f41204d756c7469766172696120546965722032206e6565647320746f2062652060008201527f6275726e7420666f722074686973207368696674000000000000000000000000602082015250565b6000614c646034836139fd565b9150614c6f82614c08565b604082019050919050565b60006020820190508181036000830152614c9381614c57565b9050919050565b7f4d756c74697661726961206d697373696e6720666f7220746865207368696674600082015250565b6000614cd06020836139fd565b9150614cdb82614c9a565b602082019050919050565b60006020820190508181036000830152614cff81614cc3565b9050919050565b7f416476616e6365642053686966742063617264206d697373696e6720666f722060008201527f7468652073686966740000000000000000000000000000000000000000000000602082015250565b6000614d626029836139fd565b9150614d6d82614d06565b604082019050919050565b60006020820190508181036000830152614d9181614d55565b9050919050565b6000614da3826137e5565b9150614dae836137e5565b9250817fffffffffffffffffffffffffffffffffffffffffffffffffffffffffffffffff0483118215151615614de757614de66149bb565b5b828202905092915050565b7f4e487b7100000000000000000000000000000000000000000000000000000000600052601260045260246000fd5b6000614e2c826137e5565b9150614e37836137e5565b925082614e4757614e46614df2565b5b828204905092915050565b6000819050919050565b614e6d614e68826137e5565b614e52565b82525050565b60008160601b9050919050565b6000614e8b82614e73565b9050919050565b6000614e9d82614e80565b9050919050565b614eb5614eb0826137a7565b614e92565b82525050565b6000614ec78285614e5c565b602082019150614ed78284614ea4565b6014820191508190509392505050565b6000614ef2826137e5565b9150614efd836137e5565b925082614f0d57614f0c614df2565b5b828206905092915050565b6000614f23826137e5565b9150614f2e836137e5565b925082821015614f4157614f406149bb565b5b828203905092915050565b6000614f57826137e5565b9150614f62836137e5565b9250827fffffffffffffffffffffffffffffffffffffffffffffffffffffffffffffffff03821115614f9757614f966149bb565b5b828201905092915050565b6000614fad826137e5565b915060008203614fc057614fbf6149bb565b5b600182039050919050565b7f4f776e61626c653a206e6577206f776e657220697320746865207a65726f206160008201527f6464726573730000000000000000000000000000000000000000000000000000602082015250565b60006150276026836139fd565b915061503282614fcb565b604082019050919050565b600060208201905081810360008301526150568161501a565b9050919050565b7f455243313135353a206275726e2066726f6d20746865207a65726f206164647260008201527f6573730000000000000000000000000000000000000000000000000000000000602082015250565b60006150b96023836139fd565b91506150c48261505d565b604082019050919050565b600060208201905081810360008301526150e8816150ac565b9050919050565b7f455243313135353a206275726e20616d6f756e7420657863656564732062616c60008201527f616e636500000000000000000000000000000000000000000000000000000000602082015250565b600061514b6024836139fd565b9150615156826150ef565b604082019050919050565b6000602082019050818103600083015261517a8161513e565b9050919050565b6000604082019050615196600083018561385b565b6151a3602083018461385b565b9392505050565b7f455243313135353a206d696e7420746f20746865207a65726f2061646472657360008201527f7300000000000000000000000000000000000000000000000000000000000000602082015250565b60006152066021836139fd565b9150615211826151aa565b604082019050919050565b60006020820190508181036000830152615235816151f9565b9050919050565b7f4f776e61626c653a2063616c6c6572206973206e6f7420746865206f776e6572600082015250565b60006152726020836139fd565b915061527d8261523c565b602082019050919050565b600060208201905081810360008301526152a181615265565b9050919050565b7f455243313135353a2069647320616e6420616d6f756e7473206c656e6774682060008201527f6d69736d61746368000000000000000000000000000000000000000000000000602082015250565b60006153046028836139fd565b915061530f826152a8565b604082019050919050565b60006020820190508181036000830152615333816152f7565b9050919050565b7f455243313135353a207472616e7366657220746f20746865207a65726f20616460008201527f6472657373000000000000000000000000000000000000000000000000000000602082015250565b60006153966025836139fd565b91506153a18261533a565b604082019050919050565b600060208201905081810360008301526153c581615389565b9050919050565b7f455243313135353a20696e73756666696369656e742062616c616e636520666f60008201527f72207472616e7366657200000000000000000000000000000000000000000000602082015250565b6000615428602a836139fd565b9150615433826153cc565b604082019050919050565b600060208201905081810360008301526154578161541b565b9050919050565b6000604082019050818103600083015261547881856140ea565b9050818103602083015261548c81846140ea565b90509392505050565b7f455243313135353a2073657474696e6720617070726f76616c2073746174757360008201527f20666f722073656c660000000000000000000000000000000000000000000000602082015250565b60006154f16029836139fd565b91506154fc82615495565b604082019050919050565b60006020820190508181036000830152615520816154e4565b9050919050565b600081519050919050565b600082825260208201905092915050565b600061554e82615527565b6155588185615532565b9350615568818560208601613a0e565b61557181613a41565b840191505092915050565b600060a0820190506155916000830188614260565b61559e6020830187614260565b6155ab604083018661385b565b6155b8606083018561385b565b81810360808301526155ca8184615543565b90509695505050505050565b6000815190506155e5816138b1565b92915050565b6000602082840312156156015761560061377d565b5b600061560f848285016155d6565b91505092915050565b60008160e01c9050919050565b600060033d11156156445760046000803e615641600051615618565b90505b90565b600060443d106156d457615659613773565b60043d036004823e80513d602482011167ffffffffffffffff821117156156815750506156d4565b808201805167ffffffffffffffff81111561569f57505050506156d4565b80602083010160043d0385018111156156bc5750505050506156d4565b6156cb82602001850186613b89565b82955050505050505b90565b7f455243313135353a207472616e7366657220746f206e6f6e204552433131353560008201527f526563656976657220696d706c656d656e746572000000000000000000000000602082015250565b60006157336034836139fd565b915061573e826156d7565b604082019050919050565b6000602082019050818103600083015261576281615726565b9050919050565b7f455243313135353a204552433131353552656365697665722072656a6563746560008201527f6420746f6b656e73000000000000000000000000000000000000000000000000602082015250565b60006157c56028836139fd565b91506157d082615769565b604082019050919050565b600060208201905081810360008301526157f4816157b8565b9050919050565b7f4e487b7100000000000000000000000000000000000000000000000000000000600052603160045260246000fd5b600060a08201905061583f6000830188614260565b61584c6020830187614260565b818103604083015261585e81866140ea565b9050818103606083015261587281856140ea565b905081810360808301526158868184615543565b9050969550505050505056fea2646970667358221220c2471aac15567da400d635645c8edea499634a0991881007b5109bc0497de78464736f6c634300080d0033",
  "immutableReferences": {},
  "source": "// SPDX-License-Identifier: MIT\n\npragma solidity >= 0.8.13;\n\nimport \"@openzeppelin/contracts/token/ERC1155/ERC1155.sol\";\nimport \"@manifoldxyz/royalty-registry-solidity/contracts/specs/IEIP2981.sol\";\nimport \"@manifoldxyz/libraries-solidity/contracts/access/AdminControl.sol\";\nimport \"@openzeppelin/contracts/utils/Strings.sol\";\n\ncontract Multivaria is ERC1155, AdminControl {\n    \n    address payable  private _royalties_recipient;\n    mapping (uint256 => uint256) _tokenMaxSupply;\n    mapping (uint256 => uint256) _tokenTier;\n    uint256 public _editionsLeft = 200;\n    uint256 private _royaltyAmount; //in % \n    uint256 [10] _ubs;\n    string public _name = \"Multivaria\";\n    string _uri;\n    bool public _shiftActivated;\n    bool public _advancedCardShifted;\n\n    uint256 public _test;\n\n    // Token IDs:\n    // Tier12: 12\n    // Tier11: 11\n    // Tier10: 10\n    // Tier9: 9\n    // Tier8: 8\n    // Tier7: 7\n    // Tier6: 6\n    // Tier5: 5\n    // Tier4: 4\n    // Tier3: 3\n    // Tier2: 2\n    // Tier1//AdvancedShiftCard: 1\n\n    // ShiftCard: 13\n\n    // URI for 1/1 before shift:14.json\n\n    // uint256 ub1 =2;\n    // uint256 ub2 =5;\n    // uint256 ub3 =10;\n    // uint256 ub4 =20;\n    // uint256 ub5 =35;\n    // uint256 ub6 = 55;\n    // uint256 ub7 = 80;\n    // uint256 ub8 = 110;\n    // uint256 ub9 = 150;\n    // uint256 ub10 = 200;\n\n    \n    constructor () ERC1155(\"\") {\n        _royalties_recipient = payable(msg.sender);\n        _royaltyAmount = 10;\n        _ubs = [2,5,10,20,35,55,80,110,150,200];\n    } \n\n    function supportsInterface(bytes4 interfaceId)\n        public\n        view\n        virtual\n        override(ERC1155, AdminControl)\n        returns (bool)\n    {\n        return\n        AdminControl.supportsInterface(interfaceId) ||\n        ERC1155.supportsInterface(interfaceId) ||\n        interfaceId == type(IEIP2981).interfaceId ||\n        super.supportsInterface(interfaceId);\n    }\n\n    function name() public view returns (string memory) {\n        return _name;\n    }\n\n    function getPseudoRndTier() public returns (uint256){    \n        bool tierFound = false;\n        uint [10] memory  ubs = _ubs;\n        uint256 tier=0;\n        uint256 editionsLeft = _editionsLeft;\n        uint256 rnd = uint256(keccak256(abi.encodePacked(block.timestamp, msg.sender))) % editionsLeft;\n        \n        for(uint256 i=0; i<= ubs.length-1; i++){\n            if(rnd < ubs[i] && tier == 0){\n                tierFound = true;\n                tier = i+2;\n            }\n            if(tierFound){\n                ubs[i]--;\n            }\n        }\n        editionsLeft--;\n        _ubs = ubs;\n        _editionsLeft = editionsLeft;\n        _test = tier;\n        return tier;   \n    }\n\n    function mint( \n        address to,\n        uint256 id,\n        uint256 amount\n    ) external adminRequired{\n        _mint(to, id, amount, \"0x0\");\n    }\n\n    function mintBatch(\n        address to,\n        uint256[] memory ids,\n        uint256[] memory amounts\n    )external adminRequired{\n        _mintBatch(to, ids, amounts, \"0x0\");\n    }\n\n    function toggleShiftActivated()external adminRequired{\n        _shiftActivated = !_shiftActivated;\n    }\n\n    function adminShift(uint256 multivariaId, uint256 shiftCardId, uint256 shiftedTier) external adminRequired{\n        require(multivariaId <= 12 && multivariaId > 1, \"Incorrect MultivariaId\");\n        require(shiftCardId == 13, \"Incorrect ShiftCardId\");\n        require(shiftedTier < 12 , \"Incorrect shiftedTier\");\n\n        _burn(msg.sender, multivariaId, 1);\n        _burn(msg.sender, shiftCardId, 1);\n        _mint(msg.sender, shiftedTier, 1, \"0x0\");\n    }\n\n    function shift() external {\n        require(_shiftActivated, \"Shift disabled\");\n        require(ERC1155.balanceOf(msg.sender, 12)>=1,\"Multivaria Tier 12 missing for the shift\");\n        require(ERC1155.balanceOf(msg.sender, 13)>=1,\"Shift card missing for the shift\");\n\n        uint256 shiftedTier = getPseudoRndTier();\n        _burn(msg.sender, 12, 1);\n        _burn(msg.sender, 13, 1);\n        _mint(msg.sender, shiftedTier, 1, \"0x0\");\n    }\n\n    function uniqueShift(uint256 multivariaId) external {\n        require(_shiftActivated, \"Shift disabled\");\n        require(multivariaId <= 12 && multivariaId >=2, \"A Multivaria Tier 2 needs to be burnt for this shift\");\n        require(ERC1155.balanceOf(msg.sender, multivariaId) >= 1,\"Multivaria missing for the shift\");\n        require(ERC1155.balanceOf(msg.sender, 1) >= 1,\"Advanced Shift card missing for the shift\");\n        _advancedCardShifted = true;\n        _burn(msg.sender, multivariaId, 1);\n        // Need to iterate on the token 1\n    }\n\n    function setURI(\n        string calldata updatedURI\n    ) external adminRequired{\n        _uri = updatedURI;\n    }\n\n    function uri(uint256 tokenId) public view virtual override returns (string memory) {\n        if(tokenId == 1 && !_advancedCardShifted){\n            return string(abi.encodePacked(_uri, Strings.toString(14), \".json\"));\n        }\n        return string(abi.encodePacked(_uri, Strings.toString(tokenId), \".json\"));\n    }\n\n    function burn(uint256 tokenId, uint256 quantity) public {\n        _burn(msg.sender, tokenId, quantity);\n    }\n\n    function burnBatch(\n        uint256[] memory ids,\n        uint256[] memory amounts\n    )external{\n        _burnBatch(msg.sender, ids, amounts);\n    }\n\n    function setRoyalties(address payable _recipient, uint256 _royaltyPerCent) external adminRequired {\n        _royalties_recipient = _recipient;\n        _royaltyAmount = _royaltyPerCent;\n    }\n\n    function royaltyInfo(uint256 salePrice) external view returns (address, uint256) {\n        if(_royalties_recipient != address(0)){\n            return (_royalties_recipient, (salePrice * _royaltyAmount) / 100 );\n        }\n        return (address(0), 0);\n    }\n\n    function withdraw(address recipient) external adminRequired {\n        payable(recipient).transfer(address(this).balance);\n    }\n\n}",
  "sourcePath": "/Users/bct/Documents/Dev/NFT_dev/MULTIVARIA/contracts/Multivaria.sol",
  "compiler": {
    "name": "solc",
    "version": "0.8.13+commit.abaa5c0e.Emscripten.clang"
  },
  "schemaVersion": "3.4.4",
  "updatedAt": "2022-10-10T19:49:15.305Z",
  "devdoc": {
    "kind": "dev",
    "methods": {
      "approveAdmin(address)": {
        "details": "See {IAdminControl-approveAdmin}."
      },
      "balanceOf(address,uint256)": {
        "details": "See {IERC1155-balanceOf}. Requirements: - `account` cannot be the zero address."
      },
      "balanceOfBatch(address[],uint256[])": {
        "details": "See {IERC1155-balanceOfBatch}. Requirements: - `accounts` and `ids` must have the same length."
      },
      "getAdmins()": {
        "details": "See {IAdminControl-getAdmins}."
      },
      "isAdmin(address)": {
        "details": "See {IAdminControl-isAdmin}."
      },
      "isApprovedForAll(address,address)": {
        "details": "See {IERC1155-isApprovedForAll}."
      },
      "owner()": {
        "details": "Returns the address of the current owner."
      },
      "renounceOwnership()": {
        "details": "Leaves the contract without owner. It will not be possible to call `onlyOwner` functions anymore. Can only be called by the current owner. NOTE: Renouncing ownership will leave the contract without an owner, thereby removing any functionality that is only available to the owner."
      },
      "revokeAdmin(address)": {
        "details": "See {IAdminControl-revokeAdmin}."
      },
      "safeBatchTransferFrom(address,address,uint256[],uint256[],bytes)": {
        "details": "See {IERC1155-safeBatchTransferFrom}."
      },
      "safeTransferFrom(address,address,uint256,uint256,bytes)": {
        "details": "See {IERC1155-safeTransferFrom}."
      },
      "setApprovalForAll(address,bool)": {
        "details": "See {IERC1155-setApprovalForAll}."
      },
      "transferOwnership(address)": {
        "details": "Transfers ownership of the contract to a new account (`newOwner`). Can only be called by the current owner."
      }
    },
    "version": 1
  },
  "userdoc": {
    "kind": "user",
    "methods": {},
    "version": 1
  }
}