{
  "contractName": "MultivariaMint",
  "abi": [
    {
      "inputs": [],
      "stateMutability": "nonpayable",
      "type": "constructor"
    },
    {
      "inputs": [],
      "name": "_ALMintOpened",
      "outputs": [
        {
          "internalType": "bool",
          "name": "",
          "type": "bool"
        }
      ],
      "stateMutability": "view",
      "type": "function"
    },
    {
      "inputs": [
        {
          "internalType": "address",
          "name": "",
          "type": "address"
        }
      ],
      "name": "_ALTokensMinted",
      "outputs": [
        {
          "internalType": "uint256",
          "name": "",
          "type": "uint256"
        }
      ],
      "stateMutability": "view",
      "type": "function"
    },
    {
      "inputs": [],
      "name": "_collectorPrice",
      "outputs": [
        {
          "internalType": "uint256",
          "name": "",
          "type": "uint256"
        }
      ],
      "stateMutability": "view",
      "type": "function"
    },
    {
      "inputs": [
        {
          "internalType": "address",
          "name": "",
          "type": "address"
        }
      ],
      "name": "_isAdmin",
      "outputs": [
        {
          "internalType": "bool",
          "name": "",
          "type": "bool"
        }
      ],
      "stateMutability": "view",
      "type": "function"
    },
    {
      "inputs": [],
      "name": "_metavariaAddress",
      "outputs": [
        {
          "internalType": "address",
          "name": "",
          "type": "address"
        }
      ],
      "stateMutability": "view",
      "type": "function"
    },
    {
      "inputs": [],
      "name": "_metavariaV2Address",
      "outputs": [
        {
          "internalType": "address",
          "name": "",
          "type": "address"
        }
      ],
      "stateMutability": "view",
      "type": "function"
    },
    {
      "inputs": [],
      "name": "_multivariaAddress",
      "outputs": [
        {
          "internalType": "address",
          "name": "",
          "type": "address"
        }
      ],
      "stateMutability": "view",
      "type": "function"
    },
    {
      "inputs": [],
      "name": "_publicMintOpened",
      "outputs": [
        {
          "internalType": "bool",
          "name": "",
          "type": "bool"
        }
      ],
      "stateMutability": "view",
      "type": "function"
    },
    {
      "inputs": [],
      "name": "_publicPrice",
      "outputs": [
        {
          "internalType": "uint256",
          "name": "",
          "type": "uint256"
        }
      ],
      "stateMutability": "view",
      "type": "function"
    },
    {
      "inputs": [
        {
          "internalType": "address",
          "name": "",
          "type": "address"
        }
      ],
      "name": "_publicTokenMinted",
      "outputs": [
        {
          "internalType": "uint256",
          "name": "",
          "type": "uint256"
        }
      ],
      "stateMutability": "view",
      "type": "function"
    },
    {
      "inputs": [],
      "name": "_recipient",
      "outputs": [
        {
          "internalType": "address",
          "name": "",
          "type": "address"
        }
      ],
      "stateMutability": "view",
      "type": "function"
    },
    {
      "inputs": [],
      "name": "_signer",
      "outputs": [
        {
          "internalType": "address",
          "name": "",
          "type": "address"
        }
      ],
      "stateMutability": "view",
      "type": "function"
    },
    {
      "inputs": [
        {
          "internalType": "uint256",
          "name": "publicMintPrice",
          "type": "uint256"
        }
      ],
      "name": "setPublicMintPrice",
      "outputs": [],
      "stateMutability": "nonpayable",
      "type": "function"
    },
    {
      "inputs": [
        {
          "internalType": "uint256",
          "name": "ALMintPrice",
          "type": "uint256"
        }
      ],
      "name": "setALMintPrice",
      "outputs": [],
      "stateMutability": "nonpayable",
      "type": "function"
    },
    {
      "inputs": [
        {
          "internalType": "address",
          "name": "signer",
          "type": "address"
        }
      ],
      "name": "setSigner",
      "outputs": [],
      "stateMutability": "nonpayable",
      "type": "function"
    },
    {
      "inputs": [
        {
          "internalType": "address",
          "name": "multivariaAddress",
          "type": "address"
        }
      ],
      "name": "setMultivariaAddress",
      "outputs": [],
      "stateMutability": "nonpayable",
      "type": "function"
    },
    {
      "inputs": [
        {
          "internalType": "address",
          "name": "metavariaAddress",
          "type": "address"
        }
      ],
      "name": "setMetavariaAddress",
      "outputs": [],
      "stateMutability": "nonpayable",
      "type": "function"
    },
    {
      "inputs": [
        {
          "internalType": "address",
          "name": "metavariaV2Address",
          "type": "address"
        }
      ],
      "name": "setMetavariaV2Address",
      "outputs": [],
      "stateMutability": "nonpayable",
      "type": "function"
    },
    {
      "inputs": [
        {
          "internalType": "address",
          "name": "recipient",
          "type": "address"
        }
      ],
      "name": "setRecipient",
      "outputs": [],
      "stateMutability": "nonpayable",
      "type": "function"
    },
    {
      "inputs": [],
      "name": "toggleALMintOpened",
      "outputs": [],
      "stateMutability": "nonpayable",
      "type": "function"
    },
    {
      "inputs": [],
      "name": "togglePublicMintOpened",
      "outputs": [],
      "stateMutability": "nonpayable",
      "type": "function"
    },
    {
      "inputs": [
        {
          "internalType": "uint8",
          "name": "v",
          "type": "uint8"
        },
        {
          "internalType": "bytes32",
          "name": "r",
          "type": "bytes32"
        },
        {
          "internalType": "bytes32",
          "name": "s",
          "type": "bytes32"
        },
        {
          "internalType": "uint256",
          "name": "quantity",
          "type": "uint256"
        }
      ],
      "name": "ALMint",
      "outputs": [],
      "stateMutability": "payable",
      "type": "function"
    },
    {
      "inputs": [
        {
          "internalType": "uint8",
          "name": "v",
          "type": "uint8"
        },
        {
          "internalType": "bytes32",
          "name": "r",
          "type": "bytes32"
        },
        {
          "internalType": "bytes32",
          "name": "s",
          "type": "bytes32"
        },
        {
          "internalType": "uint256",
          "name": "quantity",
          "type": "uint256"
        }
      ],
      "name": "collectorMint",
      "outputs": [],
      "stateMutability": "payable",
      "type": "function"
    },
    {
      "inputs": [
        {
          "internalType": "uint256",
          "name": "quantity",
          "type": "uint256"
        }
      ],
      "name": "publicMint",
      "outputs": [],
      "stateMutability": "payable",
      "type": "function"
    }
  ],
  "bytecode": "0x608060405266b1a2bc2ec5000060005567011c37937e08000060015573495f947276749ce646f68ac8c248420045cb7b5e600560006101000a81548173ffffffffffffffffffffffffffffffffffffffff021916908373ffffffffffffffffffffffffffffffffffffffff16021790555073f58f5ad673d76e32ca7d669b8bd306843b3390cc600660006101000a81548173ffffffffffffffffffffffffffffffffffffffff021916908373ffffffffffffffffffffffffffffffffffffffff1602179055503480156100d157600080fd5b506001600760003373ffffffffffffffffffffffffffffffffffffffff1673ffffffffffffffffffffffffffffffffffffffff16815260200190815260200160002060006101000a81548160ff02191690831515021790555061240d806101396000396000f3fe60806040526004361061014b5760003560e01c8063a7c0d03e116100b6578063d4cca5f11161006f578063d4cca5f114610419578063dfa9ea7f14610444578063e7d54c7c1461045b578063e9e43f1f14610498578063ef3ef4e5146104d5578063fe677566146105005761014b565b8063a7c0d03e1461032a578063acb4f94114610353578063b4a4d4a51461037e578063ba0ca15b146103a7578063ca29e8c8146103d2578063cc96b05c146103fd5761014b565b80635d82cf6e116101085780635d82cf6e1461021c5780636c19e783146102455780637e12bad21461026e5780638315edc8146102995780638c5835db146102c257806398889058146102ff5761014b565b80630a20fea71461015057806313b605b31461016757806319766cfe146101835780632db11544146101ae5780633bbed4a0146101ca5780634900d925146101f3575b600080fd5b34801561015c57600080fd5b5061016561052b565b005b610181600480360381019061017c9190611903565b6105e3565b005b34801561018f57600080fd5b50610198610874565b6040516101a59190611979565b60405180910390f35b6101c860048036038101906101c39190611994565b61087a565b005b3480156101d657600080fd5b506101f160048036038101906101ec9190611a1f565b610b9a565b005b3480156101ff57600080fd5b5061021a60048036038101906102159190611a1f565b610c6a565b005b34801561022857600080fd5b50610243600480360381019061023e9190611994565b610d3a565b005b34801561025157600080fd5b5061026c60048036038101906102679190611a1f565b610dd0565b005b34801561027a57600080fd5b50610283610ea0565b6040516102909190611a5b565b60405180910390f35b3480156102a557600080fd5b506102c060048036038101906102bb9190611a1f565b610ec6565b005b3480156102ce57600080fd5b506102e960048036038101906102e49190611a1f565b610f96565b6040516102f69190611979565b60405180910390f35b34801561030b57600080fd5b50610314610fae565b6040516103219190611979565b60405180910390f35b34801561033657600080fd5b50610351600480360381019061034c9190611a1f565b610fb4565b005b34801561035f57600080fd5b50610368611084565b6040516103759190611a91565b60405180910390f35b34801561038a57600080fd5b506103a560048036038101906103a09190611994565b611097565b005b3480156103b357600080fd5b506103bc61112d565b6040516103c99190611a5b565b60405180910390f35b3480156103de57600080fd5b506103e7611153565b6040516103f49190611a5b565b60405180910390f35b61041760048036038101906104129190611903565b611179565b005b34801561042557600080fd5b5061042e61140a565b60405161043b9190611a5b565b60405180910390f35b34801561045057600080fd5b50610459611430565b005b34801561046757600080fd5b50610482600480360381019061047d9190611a1f565b6114e8565b60405161048f9190611979565b60405180910390f35b3480156104a457600080fd5b506104bf60048036038101906104ba9190611a1f565b611500565b6040516104cc9190611a91565b60405180910390f35b3480156104e157600080fd5b506104ea611520565b6040516104f79190611a91565b60405180910390f35b34801561050c57600080fd5b50610515611533565b6040516105229190611a5b565b60405180910390f35b600760003373ffffffffffffffffffffffffffffffffffffffff1673ffffffffffffffffffffffffffffffffffffffff16815260200190815260200160002060009054906101000a900460ff166105b7576040517f08c379a00000000000000000000000000000000000000000000000000000000081526004016105ae90611b09565b60405180910390fd5b600660149054906101000a900460ff1615600660146101000a81548160ff021916908315150217905550565b6105ef81858585611559565b61062e576040517f08c379a000000000000000000000000000000000000000000000000000000000815260040161062590611b75565b60405180910390fd5b8060005461063c9190611bc4565b34101561067e576040517f08c379a000000000000000000000000000000000000000000000000000000000815260040161067590611c6a565b60405180910390fd5b600460009054906101000a900473ffffffffffffffffffffffffffffffffffffffff1673ffffffffffffffffffffffffffffffffffffffff166108fc826000546106c89190611bc4565b9081150290604051600060405180830381858888f193505050501580156106f3573d6000803e3d6000fd5b50600260009054906101000a900473ffffffffffffffffffffffffffffffffffffffff1673ffffffffffffffffffffffffffffffffffffffff1663156e29f633600c846040518463ffffffff1660e01b815260040161075493929190611ccf565b600060405180830381600087803b15801561076e57600080fd5b505af1158015610782573d6000803e3d6000fd5b50505050600260009054906101000a900473ffffffffffffffffffffffffffffffffffffffff1673ffffffffffffffffffffffffffffffffffffffff1663156e29f633600d846040518463ffffffff1660e01b81526004016107e693929190611d41565b600060405180830381600087803b15801561080057600080fd5b505af1158015610814573d6000803e3d6000fd5b5050505080600860003373ffffffffffffffffffffffffffffffffffffffff1673ffffffffffffffffffffffffffffffffffffffff16815260200190815260200160002060008282546108679190611d78565b9250508190555050505050565b60005481565b600660159054906101000a900460ff166108c9576040517f08c379a00000000000000000000000000000000000000000000000000000000081526004016108c090611e1a565b60405180910390fd5b600281600960003373ffffffffffffffffffffffffffffffffffffffff1673ffffffffffffffffffffffffffffffffffffffff168152602001908152602001600020546109169190611d78565b1115610957576040517f08c379a000000000000000000000000000000000000000000000000000000000815260040161094e90611eac565b60405180910390fd5b806001546109659190611bc4565b3410156109a7576040517f08c379a000000000000000000000000000000000000000000000000000000000815260040161099e90611c6a565b60405180910390fd5b600460009054906101000a900473ffffffffffffffffffffffffffffffffffffffff1673ffffffffffffffffffffffffffffffffffffffff166108fc826001546109f19190611bc4565b9081150290604051600060405180830381858888f19350505050158015610a1c573d6000803e3d6000fd5b50600260009054906101000a900473ffffffffffffffffffffffffffffffffffffffff1673ffffffffffffffffffffffffffffffffffffffff1663156e29f633600c846040518463ffffffff1660e01b8152600401610a7d93929190611ccf565b600060405180830381600087803b158015610a9757600080fd5b505af1158015610aab573d6000803e3d6000fd5b50505050600260009054906101000a900473ffffffffffffffffffffffffffffffffffffffff1673ffffffffffffffffffffffffffffffffffffffff1663156e29f633600d846040518463ffffffff1660e01b8152600401610b0f93929190611d41565b600060405180830381600087803b158015610b2957600080fd5b505af1158015610b3d573d6000803e3d6000fd5b5050505080600960003373ffffffffffffffffffffffffffffffffffffffff1673ffffffffffffffffffffffffffffffffffffffff1681526020019081526020016000206000828254610b909190611d78565b9250508190555050565b600760003373ffffffffffffffffffffffffffffffffffffffff1673ffffffffffffffffffffffffffffffffffffffff16815260200190815260200160002060009054906101000a900460ff16610c26576040517f08c379a0000000000000000000000000000000000000000000000000000000008152600401610c1d90611f3e565b60405180910390fd5b80600460006101000a81548173ffffffffffffffffffffffffffffffffffffffff021916908373ffffffffffffffffffffffffffffffffffffffff16021790555050565b600760003373ffffffffffffffffffffffffffffffffffffffff1673ffffffffffffffffffffffffffffffffffffffff16815260200190815260200160002060009054906101000a900460ff16610cf6576040517f08c379a0000000000000000000000000000000000000000000000000000000008152600401610ced90611fd0565b60405180910390fd5b80600660006101000a81548173ffffffffffffffffffffffffffffffffffffffff021916908373ffffffffffffffffffffffffffffffffffffffff16021790555050565b600760003373ffffffffffffffffffffffffffffffffffffffff1673ffffffffffffffffffffffffffffffffffffffff16815260200190815260200160002060009054906101000a900460ff16610dc6576040517f08c379a0000000000000000000000000000000000000000000000000000000008152600401610dbd90612062565b60405180910390fd5b8060018190555050565b600760003373ffffffffffffffffffffffffffffffffffffffff1673ffffffffffffffffffffffffffffffffffffffff16815260200190815260200160002060009054906101000a900460ff16610e5c576040517f08c379a0000000000000000000000000000000000000000000000000000000008152600401610e53906120ce565b60405180910390fd5b80600360006101000a81548173ffffffffffffffffffffffffffffffffffffffff021916908373ffffffffffffffffffffffffffffffffffffffff16021790555050565b600660009054906101000a900473ffffffffffffffffffffffffffffffffffffffff1681565b600760003373ffffffffffffffffffffffffffffffffffffffff1673ffffffffffffffffffffffffffffffffffffffff16815260200190815260200160002060009054906101000a900460ff16610f52576040517f08c379a0000000000000000000000000000000000000000000000000000000008152600401610f4990611fd0565b60405180910390fd5b80600260006101000a81548173ffffffffffffffffffffffffffffffffffffffff021916908373ffffffffffffffffffffffffffffffffffffffff16021790555050565b60096020528060005260406000206000915090505481565b60015481565b600760003373ffffffffffffffffffffffffffffffffffffffff1673ffffffffffffffffffffffffffffffffffffffff16815260200190815260200160002060009054906101000a900460ff16611040576040517f08c379a000000000000000000000000000000000000000000000000000000000815260040161103790611fd0565b60405180910390fd5b80600560006101000a81548173ffffffffffffffffffffffffffffffffffffffff021916908373ffffffffffffffffffffffffffffffffffffffff16021790555050565b600660159054906101000a900460ff1681565b600760003373ffffffffffffffffffffffffffffffffffffffff1673ffffffffffffffffffffffffffffffffffffffff16815260200190815260200160002060009054906101000a900460ff16611123576040517f08c379a000000000000000000000000000000000000000000000000000000000815260040161111a9061213a565b60405180910390fd5b8060008190555050565b600260009054906101000a900473ffffffffffffffffffffffffffffffffffffffff1681565b600360009054906101000a900473ffffffffffffffffffffffffffffffffffffffff1681565b611185818585856116d9565b6111c4576040517f08c379a00000000000000000000000000000000000000000000000000000000081526004016111bb90611b75565b60405180910390fd5b806001546111d29190611bc4565b341015611214576040517f08c379a000000000000000000000000000000000000000000000000000000000815260040161120b90611c6a565b60405180910390fd5b600460009054906101000a900473ffffffffffffffffffffffffffffffffffffffff1673ffffffffffffffffffffffffffffffffffffffff166108fc8260015461125e9190611bc4565b9081150290604051600060405180830381858888f19350505050158015611289573d6000803e3d6000fd5b50600260009054906101000a900473ffffffffffffffffffffffffffffffffffffffff1673ffffffffffffffffffffffffffffffffffffffff1663156e29f633600c846040518463ffffffff1660e01b81526004016112ea93929190611ccf565b600060405180830381600087803b15801561130457600080fd5b505af1158015611318573d6000803e3d6000fd5b50505050600260009054906101000a900473ffffffffffffffffffffffffffffffffffffffff1673ffffffffffffffffffffffffffffffffffffffff1663156e29f633600d846040518463ffffffff1660e01b815260040161137c93929190611d41565b600060405180830381600087803b15801561139657600080fd5b505af11580156113aa573d6000803e3d6000fd5b5050505080600860003373ffffffffffffffffffffffffffffffffffffffff1673ffffffffffffffffffffffffffffffffffffffff16815260200190815260200160002060008282546113fd9190611d78565b9250508190555050505050565b600460009054906101000a900473ffffffffffffffffffffffffffffffffffffffff1681565b600760003373ffffffffffffffffffffffffffffffffffffffff1673ffffffffffffffffffffffffffffffffffffffff16815260200190815260200160002060009054906101000a900460ff166114bc576040517f08c379a00000000000000000000000000000000000000000000000000000000081526004016114b3906121a6565b60405180910390fd5b600660159054906101000a900460ff1615600660156101000a81548160ff021916908315150217905550565b60086020528060005260406000206000915090505481565b60076020528060005260406000206000915054906101000a900460ff1681565b600660149054906101000a900460ff1681565b600560009054906101000a900473ffffffffffffffffffffffffffffffffffffffff1681565b6000600133600260009054906101000a900473ffffffffffffffffffffffffffffffffffffffff16600660149054906101000a900460ff1660005460028a600860003373ffffffffffffffffffffffffffffffffffffffff1673ffffffffffffffffffffffffffffffffffffffff168152602001908152602001600020546115e19190611d78565b11156040516020016115f7959493929190612277565b6040516020818303038152906040528051906020012060405160200161161d919061234e565b60405160208183030381529060405280519060200120858585604051600081526020016040526040516116539493929190612392565b6020604051602081039080840390855afa158015611675573d6000803e3d6000fd5b5050506020604051035173ffffffffffffffffffffffffffffffffffffffff16600360009054906101000a900473ffffffffffffffffffffffffffffffffffffffff1673ffffffffffffffffffffffffffffffffffffffff16149050949350505050565b6000600133600260009054906101000a900473ffffffffffffffffffffffffffffffffffffffff16600660149054906101000a900460ff1660015460028a600860003373ffffffffffffffffffffffffffffffffffffffff1673ffffffffffffffffffffffffffffffffffffffff168152602001908152602001600020546117619190611d78565b1115604051602001611777959493929190612277565b6040516020818303038152906040528051906020012060405160200161179d919061234e565b60405160208183030381529060405280519060200120858585604051600081526020016040526040516117d39493929190612392565b6020604051602081039080840390855afa1580156117f5573d6000803e3d6000fd5b5050506020604051035173ffffffffffffffffffffffffffffffffffffffff16600360009054906101000a900473ffffffffffffffffffffffffffffffffffffffff1673ffffffffffffffffffffffffffffffffffffffff16149050949350505050565b600080fd5b600060ff82169050919050565b6118748161185e565b811461187f57600080fd5b50565b6000813590506118918161186b565b92915050565b6000819050919050565b6118aa81611897565b81146118b557600080fd5b50565b6000813590506118c7816118a1565b92915050565b6000819050919050565b6118e0816118cd565b81146118eb57600080fd5b50565b6000813590506118fd816118d7565b92915050565b6000806000806080858703121561191d5761191c611859565b5b600061192b87828801611882565b945050602061193c878288016118b8565b935050604061194d878288016118b8565b925050606061195e878288016118ee565b91505092959194509250565b611973816118cd565b82525050565b600060208201905061198e600083018461196a565b92915050565b6000602082840312156119aa576119a9611859565b5b60006119b8848285016118ee565b91505092915050565b600073ffffffffffffffffffffffffffffffffffffffff82169050919050565b60006119ec826119c1565b9050919050565b6119fc816119e1565b8114611a0757600080fd5b50565b600081359050611a19816119f3565b92915050565b600060208284031215611a3557611a34611859565b5b6000611a4384828501611a0a565b91505092915050565b611a55816119e1565b82525050565b6000602082019050611a706000830184611a4c565b92915050565b60008115159050919050565b611a8b81611a76565b82525050565b6000602082019050611aa66000830184611a82565b92915050565b600082825260208201905092915050565b7f4f6e6c792041646d696e732063616e20746f67676c6520414c204d696e740000600082015250565b6000611af3601e83611aac565b9150611afe82611abd565b602082019050919050565b60006020820190508181036000830152611b2281611ae6565b9050919050565b7f4d696e74206e6f7420616c6c6f77656400000000000000000000000000000000600082015250565b6000611b5f601083611aac565b9150611b6a82611b29565b602082019050919050565b60006020820190508181036000830152611b8e81611b52565b9050919050565b7f4e487b7100000000000000000000000000000000000000000000000000000000600052601160045260246000fd5b6000611bcf826118cd565b9150611bda836118cd565b9250817fffffffffffffffffffffffffffffffffffffffffffffffffffffffffffffffff0483118215151615611c1357611c12611b95565b5b828202905092915050565b7f4e6f7420656e6f7567682066756e647300000000000000000000000000000000600082015250565b6000611c54601083611aac565b9150611c5f82611c1e565b602082019050919050565b60006020820190508181036000830152611c8381611c47565b9050919050565b6000819050919050565b6000819050919050565b6000611cb9611cb4611caf84611c8a565b611c94565b6118cd565b9050919050565b611cc981611c9e565b82525050565b6000606082019050611ce46000830186611a4c565b611cf16020830185611cc0565b611cfe604083018461196a565b949350505050565b6000819050919050565b6000611d2b611d26611d2184611d06565b611c94565b6118cd565b9050919050565b611d3b81611d10565b82525050565b6000606082019050611d566000830186611a4c565b611d636020830185611d32565b611d70604083018461196a565b949350505050565b6000611d83826118cd565b9150611d8e836118cd565b9250827fffffffffffffffffffffffffffffffffffffffffffffffffffffffffffffffff03821115611dc357611dc2611b95565b5b828201905092915050565b7f5075626c6963206d696e742069732063757272656e746c7920636c6f73656400600082015250565b6000611e04601f83611aac565b9150611e0f82611dce565b602082019050919050565b60006020820190508181036000830152611e3381611df7565b9050919050565b7f5573657220616c7265616479206d696e74656420746865206d6178206e756d6260008201527f6572206f66207069656365730000000000000000000000000000000000000000602082015250565b6000611e96602c83611aac565b9150611ea182611e3a565b604082019050919050565b60006020820190508181036000830152611ec581611e89565b9050919050565b7f4f6e6c792041646d696e732063616e207365742074686520726563697069656e60008201527f7400000000000000000000000000000000000000000000000000000000000000602082015250565b6000611f28602183611aac565b9150611f3382611ecc565b604082019050919050565b60006020820190508181036000830152611f5781611f1b565b9050919050565b7f4f6e6c792041646d696e732063616e20736574204d756c74697661726961204160008201527f6464726573730000000000000000000000000000000000000000000000000000602082015250565b6000611fba602683611aac565b9150611fc582611f5e565b604082019050919050565b60006020820190508181036000830152611fe981611fad565b9050919050565b7f4f6e6c792041646d696e732063616e2073657420746865207075626c6963207060008201527f7269636500000000000000000000000000000000000000000000000000000000602082015250565b600061204c602483611aac565b915061205782611ff0565b604082019050919050565b6000602082019050818103600083015261207b8161203f565b9050919050565b7f4f6e6c792041646d696e732063616e20736574207369676e6572000000000000600082015250565b60006120b8601a83611aac565b91506120c382612082565b602082019050919050565b600060208201905081810360008301526120e7816120ab565b9050919050565b7f4f6e6c792041646d696e732063616e207365742074686520414c207072696365600082015250565b6000612124602083611aac565b915061212f826120ee565b602082019050919050565b6000602082019050818103600083015261215381612117565b9050919050565b7f4f6e6c792041646d696e732063616e20746f67676c65206275726e204d696e74600082015250565b6000612190602083611aac565b915061219b8261215a565b602082019050919050565b600060208201905081810360008301526121bf81612183565b9050919050565b60008160601b9050919050565b60006121de826121c6565b9050919050565b60006121f0826121d3565b9050919050565b612208612203826119e1565b6121e5565b82525050565b60008160f81b9050919050565b60006122268261220e565b9050919050565b60006122388261221b565b9050919050565b61225061224b82611a76565b61222d565b82525050565b6000819050919050565b61227161226c826118cd565b612256565b82525050565b600061228382886121f7565b60148201915061229382876121f7565b6014820191506122a3828661223f565b6001820191506122b38285612260565b6020820191506122c3828461223f565b6001820191508190509695505050505050565b600081905092915050565b7f19457468657265756d205369676e6564204d6573736167653a0a333200000000600082015250565b6000612317601c836122d6565b9150612322826122e1565b601c82019050919050565b6000819050919050565b61234861234382611897565b61232d565b82525050565b60006123598261230a565b91506123658284612337565b60208201915081905092915050565b61237d81611897565b82525050565b61238c8161185e565b82525050565b60006080820190506123a76000830187612374565b6123b46020830186612383565b6123c16040830185612374565b6123ce6060830184612374565b9594505050505056fea2646970667358221220f49653b76cd04efae0c8f149570d30f63fd72f6abddeeebd9f08183f9205152264736f6c634300080d0033",
  "immutableReferences": {},
  "source": "// SPDX-License-Identifier: MIT\n\npragma solidity >= 0.8.13;\n\nimport \"@openzeppelin/contracts/token/ERC1155/IERC1155.sol\";\nimport \"./Multivaria.sol\";\n\ncontract MultivariaMint{\n    uint256 public _collectorPrice = 0.05 ether;\n    uint256 public _publicPrice = 0.08 ether;\n\n    address public _multivariaAddress;\n    address public _signer;\n    address public _recipient;\n    address public _metavariaAddress = 0x495f947276749Ce646f68AC8c248420045cb7b5e;\n    address public _metavariaV2Address = 0xf58F5ad673d76e32Ca7D669B8bd306843B3390cC;\n\n    bool public _ALMintOpened;\n    bool public _publicMintOpened;\n\n    mapping(address => bool) public _isAdmin;\n    mapping(address => uint256) public _ALTokensMinted;\n    mapping(address => uint256) public _publicTokenMinted;\n\n    constructor(){\n        _isAdmin[msg.sender]=true;\n    }\n\n    function setPublicMintPrice (uint256 publicMintPrice) external{\n        require(_isAdmin[msg.sender], \"Only Admins can set the public price\");\n        _publicPrice = publicMintPrice;\n    }\n\n    function setALMintPrice (uint256 ALMintPrice) external{\n        require(_isAdmin[msg.sender], \"Only Admins can set the AL price\");\n        _collectorPrice = ALMintPrice;\n    }\n    \n    function setSigner (address signer) external{\n        require(_isAdmin[msg.sender], \"Only Admins can set signer\");\n        _signer = signer;\n    }\n\n    function setMultivariaAddress(address multivariaAddress) external{\n        require(_isAdmin[msg.sender], \"Only Admins can set Multivaria Address\");\n        _multivariaAddress = multivariaAddress;\n    }\n\n    function setMetavariaAddress(address metavariaAddress) external{\n        require(_isAdmin[msg.sender], \"Only Admins can set Multivaria Address\");\n        _metavariaAddress = metavariaAddress;\n    }\n\n    function setMetavariaV2Address(address metavariaV2Address) external{\n        require(_isAdmin[msg.sender], \"Only Admins can set Multivaria Address\");\n        _metavariaV2Address = metavariaV2Address;\n    }\n\n\n    function setRecipient(address recipient) external{\n        require(_isAdmin[msg.sender], \"Only Admins can set the recipient\");\n        _recipient = recipient;\n    }\n\n    function toggleALMintOpened() external{\n        require(_isAdmin[msg.sender], \"Only Admins can toggle AL Mint\");\n        _ALMintOpened = !_ALMintOpened;\n    }\n\n    function togglePublicMintOpened() external{\n        require(_isAdmin[msg.sender], \"Only Admins can toggle burn Mint\");\n        _publicMintOpened = !_publicMintOpened;\n    }\n\n    function mintAllowed(uint256 quantity, uint8 v, bytes32 r, bytes32 s)internal view returns(bool){\n        return(\n            _signer ==\n                ecrecover(\n                    keccak256(\n                        abi.encodePacked(\n                            \"\\x19Ethereum Signed Message:\\n32\",\n                            keccak256(\n                                abi.encodePacked(\n                                    msg.sender,\n                                    _multivariaAddress,\n                                    _ALMintOpened,\n                                    _publicPrice,\n                                    _ALTokensMinted[msg.sender] + quantity <= 2\n                                )\n                            )\n                        )\n                    )\n                , v, r, s)\n        );\n    }\n\n    function collectorMintAllowed(uint256 quantity, uint8 v, bytes32 r, bytes32 s)internal view returns(bool){\n        return(\n            _signer ==\n                ecrecover(\n                    keccak256(\n                        abi.encodePacked(\n                            \"\\x19Ethereum Signed Message:\\n32\",\n                            keccak256(\n                                abi.encodePacked(\n                                    msg.sender,\n                                    _multivariaAddress,\n                                    _ALMintOpened,\n                                    _collectorPrice,\n                                    _ALTokensMinted[msg.sender] + quantity <= 2\n                                )\n                            )\n                        )\n                    )\n            , v, r, s)\n        );\n    }\n\n\n    function ALMint(\n        uint8 v,\n        bytes32 r, \n        bytes32 s,\n        uint256 quantity\n    ) external payable{\n        require(mintAllowed(quantity, v, r, s), \"Mint not allowed\");\n        require(msg.value >= _publicPrice * quantity, \"Not enough funds\");\n        payable(_recipient).transfer(_publicPrice * quantity);\n        Multivaria(_multivariaAddress).mint(msg.sender, 12, quantity);\n        Multivaria(_multivariaAddress).mint(msg.sender, 13, quantity);\n        _ALTokensMinted[msg.sender] += quantity;\n    }\n\n    function collectorMint(\n        uint8 v,\n        bytes32 r, \n        bytes32 s,\n        uint256 quantity\n    ) external payable{\n        require(collectorMintAllowed(quantity, v, r, s), \"Mint not allowed\");\n        require(msg.value >= _collectorPrice * quantity, \"Not enough funds\");\n        payable(_recipient).transfer(_collectorPrice * quantity);\n        Multivaria(_multivariaAddress).mint(msg.sender, 12, quantity);\n        Multivaria(_multivariaAddress).mint(msg.sender, 13, quantity);\n        _ALTokensMinted[msg.sender] += quantity;\n    }\n\n    function publicMint(uint256 quantity)external payable{\n        require(_publicMintOpened, \"Public mint is currently closed\");\n        require(_publicTokenMinted[msg.sender] + quantity <= 2, \"User already minted the max number of pieces\");\n        require(msg.value >= _publicPrice * quantity, \"Not enough funds\");\n        payable(_recipient).transfer(_publicPrice * quantity);\n        Multivaria(_multivariaAddress).mint(msg.sender, 12, quantity);\n        Multivaria(_multivariaAddress).mint(msg.sender, 13, quantity);\n        _publicTokenMinted[msg.sender] += quantity;\n    }\n}",
  "sourcePath": "/Users/bct/Documents/Dev/NFT_dev/MULTIVARIA/contracts/MultivariaMint.sol",
  "compiler": {
    "name": "solc",
    "version": "0.8.13+commit.abaa5c0e.Emscripten.clang"
  },
  "schemaVersion": "3.4.4",
  "updatedAt": "2022-10-10T19:49:15.319Z",
  "devdoc": {
    "kind": "dev",
    "methods": {},
    "version": 1
  },
  "userdoc": {
    "kind": "user",
    "methods": {},
    "version": 1
  }
}