{
  "contractName": "OSContract",
  "abi": [
    {
      "inputs": [],
      "stateMutability": "nonpayable",
      "type": "constructor"
    },
    {
      "anonymous": false,
      "inputs": [
        {
          "indexed": true,
          "internalType": "address",
          "name": "account",
          "type": "address"
        },
        {
          "indexed": true,
          "internalType": "address",
          "name": "sender",
          "type": "address"
        }
      ],
      "name": "AdminApproved",
      "type": "event"
    },
    {
      "anonymous": false,
      "inputs": [
        {
          "indexed": true,
          "internalType": "address",
          "name": "account",
          "type": "address"
        },
        {
          "indexed": true,
          "internalType": "address",
          "name": "sender",
          "type": "address"
        }
      ],
      "name": "AdminRevoked",
      "type": "event"
    },
    {
      "anonymous": false,
      "inputs": [
        {
          "indexed": true,
          "internalType": "address",
          "name": "account",
          "type": "address"
        },
        {
          "indexed": true,
          "internalType": "address",
          "name": "operator",
          "type": "address"
        },
        {
          "indexed": false,
          "internalType": "bool",
          "name": "approved",
          "type": "bool"
        }
      ],
      "name": "ApprovalForAll",
      "type": "event"
    },
    {
      "anonymous": false,
      "inputs": [
        {
          "indexed": true,
          "internalType": "address",
          "name": "previousOwner",
          "type": "address"
        },
        {
          "indexed": true,
          "internalType": "address",
          "name": "newOwner",
          "type": "address"
        }
      ],
      "name": "OwnershipTransferred",
      "type": "event"
    },
    {
      "anonymous": false,
      "inputs": [
        {
          "indexed": true,
          "internalType": "address",
          "name": "operator",
          "type": "address"
        },
        {
          "indexed": true,
          "internalType": "address",
          "name": "from",
          "type": "address"
        },
        {
          "indexed": true,
          "internalType": "address",
          "name": "to",
          "type": "address"
        },
        {
          "indexed": false,
          "internalType": "uint256[]",
          "name": "ids",
          "type": "uint256[]"
        },
        {
          "indexed": false,
          "internalType": "uint256[]",
          "name": "values",
          "type": "uint256[]"
        }
      ],
      "name": "TransferBatch",
      "type": "event"
    },
    {
      "anonymous": false,
      "inputs": [
        {
          "indexed": true,
          "internalType": "address",
          "name": "operator",
          "type": "address"
        },
        {
          "indexed": true,
          "internalType": "address",
          "name": "from",
          "type": "address"
        },
        {
          "indexed": true,
          "internalType": "address",
          "name": "to",
          "type": "address"
        },
        {
          "indexed": false,
          "internalType": "uint256",
          "name": "id",
          "type": "uint256"
        },
        {
          "indexed": false,
          "internalType": "uint256",
          "name": "value",
          "type": "uint256"
        }
      ],
      "name": "TransferSingle",
      "type": "event"
    },
    {
      "anonymous": false,
      "inputs": [
        {
          "indexed": false,
          "internalType": "string",
          "name": "value",
          "type": "string"
        },
        {
          "indexed": true,
          "internalType": "uint256",
          "name": "id",
          "type": "uint256"
        }
      ],
      "name": "URI",
      "type": "event"
    },
    {
      "inputs": [
        {
          "internalType": "address",
          "name": "admin",
          "type": "address"
        }
      ],
      "name": "approveAdmin",
      "outputs": [],
      "stateMutability": "nonpayable",
      "type": "function"
    },
    {
      "inputs": [
        {
          "internalType": "address",
          "name": "account",
          "type": "address"
        },
        {
          "internalType": "uint256",
          "name": "id",
          "type": "uint256"
        }
      ],
      "name": "balanceOf",
      "outputs": [
        {
          "internalType": "uint256",
          "name": "",
          "type": "uint256"
        }
      ],
      "stateMutability": "view",
      "type": "function"
    },
    {
      "inputs": [
        {
          "internalType": "address[]",
          "name": "accounts",
          "type": "address[]"
        },
        {
          "internalType": "uint256[]",
          "name": "ids",
          "type": "uint256[]"
        }
      ],
      "name": "balanceOfBatch",
      "outputs": [
        {
          "internalType": "uint256[]",
          "name": "",
          "type": "uint256[]"
        }
      ],
      "stateMutability": "view",
      "type": "function"
    },
    {
      "inputs": [],
      "name": "getAdmins",
      "outputs": [
        {
          "internalType": "address[]",
          "name": "admins",
          "type": "address[]"
        }
      ],
      "stateMutability": "view",
      "type": "function"
    },
    {
      "inputs": [
        {
          "internalType": "address",
          "name": "admin",
          "type": "address"
        }
      ],
      "name": "isAdmin",
      "outputs": [
        {
          "internalType": "bool",
          "name": "",
          "type": "bool"
        }
      ],
      "stateMutability": "view",
      "type": "function"
    },
    {
      "inputs": [
        {
          "internalType": "address",
          "name": "account",
          "type": "address"
        },
        {
          "internalType": "address",
          "name": "operator",
          "type": "address"
        }
      ],
      "name": "isApprovedForAll",
      "outputs": [
        {
          "internalType": "bool",
          "name": "",
          "type": "bool"
        }
      ],
      "stateMutability": "view",
      "type": "function"
    },
    {
      "inputs": [],
      "name": "owner",
      "outputs": [
        {
          "internalType": "address",
          "name": "",
          "type": "address"
        }
      ],
      "stateMutability": "view",
      "type": "function"
    },
    {
      "inputs": [],
      "name": "renounceOwnership",
      "outputs": [],
      "stateMutability": "nonpayable",
      "type": "function"
    },
    {
      "inputs": [
        {
          "internalType": "address",
          "name": "admin",
          "type": "address"
        }
      ],
      "name": "revokeAdmin",
      "outputs": [],
      "stateMutability": "nonpayable",
      "type": "function"
    },
    {
      "inputs": [
        {
          "internalType": "address",
          "name": "from",
          "type": "address"
        },
        {
          "internalType": "address",
          "name": "to",
          "type": "address"
        },
        {
          "internalType": "uint256[]",
          "name": "ids",
          "type": "uint256[]"
        },
        {
          "internalType": "uint256[]",
          "name": "amounts",
          "type": "uint256[]"
        },
        {
          "internalType": "bytes",
          "name": "data",
          "type": "bytes"
        }
      ],
      "name": "safeBatchTransferFrom",
      "outputs": [],
      "stateMutability": "nonpayable",
      "type": "function"
    },
    {
      "inputs": [
        {
          "internalType": "address",
          "name": "from",
          "type": "address"
        },
        {
          "internalType": "address",
          "name": "to",
          "type": "address"
        },
        {
          "internalType": "uint256",
          "name": "id",
          "type": "uint256"
        },
        {
          "internalType": "uint256",
          "name": "amount",
          "type": "uint256"
        },
        {
          "internalType": "bytes",
          "name": "data",
          "type": "bytes"
        }
      ],
      "name": "safeTransferFrom",
      "outputs": [],
      "stateMutability": "nonpayable",
      "type": "function"
    },
    {
      "inputs": [
        {
          "internalType": "address",
          "name": "operator",
          "type": "address"
        },
        {
          "internalType": "bool",
          "name": "approved",
          "type": "bool"
        }
      ],
      "name": "setApprovalForAll",
      "outputs": [],
      "stateMutability": "nonpayable",
      "type": "function"
    },
    {
      "inputs": [
        {
          "internalType": "address",
          "name": "newOwner",
          "type": "address"
        }
      ],
      "name": "transferOwnership",
      "outputs": [],
      "stateMutability": "nonpayable",
      "type": "function"
    },
    {
      "inputs": [
        {
          "internalType": "bytes4",
          "name": "interfaceId",
          "type": "bytes4"
        }
      ],
      "name": "supportsInterface",
      "outputs": [
        {
          "internalType": "bool",
          "name": "",
          "type": "bool"
        }
      ],
      "stateMutability": "view",
      "type": "function"
    },
    {
      "inputs": [],
      "name": "name",
      "outputs": [
        {
          "internalType": "string",
          "name": "",
          "type": "string"
        }
      ],
      "stateMutability": "view",
      "type": "function"
    },
    {
      "inputs": [
        {
          "internalType": "address",
          "name": "to",
          "type": "address"
        },
        {
          "internalType": "uint256",
          "name": "id",
          "type": "uint256"
        },
        {
          "internalType": "uint256",
          "name": "amount",
          "type": "uint256"
        }
      ],
      "name": "mint",
      "outputs": [],
      "stateMutability": "nonpayable",
      "type": "function"
    },
    {
      "inputs": [
        {
          "internalType": "address",
          "name": "to",
          "type": "address"
        },
        {
          "internalType": "uint256[]",
          "name": "ids",
          "type": "uint256[]"
        },
        {
          "internalType": "uint256[]",
          "name": "amounts",
          "type": "uint256[]"
        }
      ],
      "name": "mintBatch",
      "outputs": [],
      "stateMutability": "nonpayable",
      "type": "function"
    },
    {
      "inputs": [
        {
          "internalType": "string",
          "name": "updatedURI",
          "type": "string"
        }
      ],
      "name": "setURI",
      "outputs": [],
      "stateMutability": "nonpayable",
      "type": "function"
    },
    {
      "inputs": [
        {
          "internalType": "uint256",
          "name": "tokenId",
          "type": "uint256"
        }
      ],
      "name": "uri",
      "outputs": [
        {
          "internalType": "string",
          "name": "",
          "type": "string"
        }
      ],
      "stateMutability": "view",
      "type": "function"
    },
    {
      "inputs": [
        {
          "internalType": "uint256",
          "name": "tokenId",
          "type": "uint256"
        },
        {
          "internalType": "uint256",
          "name": "quantity",
          "type": "uint256"
        }
      ],
      "name": "burn",
      "outputs": [],
      "stateMutability": "nonpayable",
      "type": "function"
    },
    {
      "inputs": [
        {
          "internalType": "uint256[]",
          "name": "ids",
          "type": "uint256[]"
        },
        {
          "internalType": "uint256[]",
          "name": "amounts",
          "type": "uint256[]"
        }
      ],
      "name": "burnBatch",
      "outputs": [],
      "stateMutability": "nonpayable",
      "type": "function"
    },
    {
      "inputs": [
        {
          "internalType": "address payable",
          "name": "_recipient",
          "type": "address"
        },
        {
          "internalType": "uint256",
          "name": "_royaltyPerCent",
          "type": "uint256"
        }
      ],
      "name": "setRoyalties",
      "outputs": [],
      "stateMutability": "nonpayable",
      "type": "function"
    },
    {
      "inputs": [
        {
          "internalType": "uint256",
          "name": "salePrice",
          "type": "uint256"
        }
      ],
      "name": "royaltyInfo",
      "outputs": [
        {
          "internalType": "address",
          "name": "",
          "type": "address"
        },
        {
          "internalType": "uint256",
          "name": "",
          "type": "uint256"
        }
      ],
      "stateMutability": "view",
      "type": "function"
    },
    {
      "inputs": [
        {
          "internalType": "address",
          "name": "recipient",
          "type": "address"
        }
      ],
      "name": "withdraw",
      "outputs": [],
      "stateMutability": "nonpayable",
      "type": "function"
    }
  ],
  "bytecode": "0x60806040523480156200001157600080fd5b50604051806020016040528060008152506200004262000036620000a360201b60201c565b620000ab60201b60201c565b62000053816200016f60201b60201c565b5033600760006101000a81548173ffffffffffffffffffffffffffffffffffffffff021916908373ffffffffffffffffffffffffffffffffffffffff160217905550600a6006819055506200029f565b600033905090565b60008060009054906101000a900473ffffffffffffffffffffffffffffffffffffffff169050816000806101000a81548173ffffffffffffffffffffffffffffffffffffffff021916908373ffffffffffffffffffffffffffffffffffffffff1602179055508173ffffffffffffffffffffffffffffffffffffffff168173ffffffffffffffffffffffffffffffffffffffff167f8be0079c531659141344cd1fd0a4f28419497f9722a3daafe3b4186f6b6457e060405160405180910390a35050565b8060039080519060200190620001879291906200018b565b5050565b82805462000199906200026a565b90600052602060002090601f016020900481019282620001bd576000855562000209565b82601f10620001d857805160ff191683800117855562000209565b8280016001018555821562000209579182015b8281111562000208578251825591602001919060010190620001eb565b5b5090506200021891906200021c565b5090565b5b80821115620002375760008160009055506001016200021d565b5090565b7f4e487b7100000000000000000000000000000000000000000000000000000000600052602260045260246000fd5b600060028204905060018216806200028357607f821691505b6020821081036200029957620002986200023b565b5b50919050565b6149da80620002af6000396000f3fe608060405234801561001057600080fd5b50600436106101575760003560e01c80636d73e669116100c3578063b390c0ab1161007c578063b390c0ab146103ac578063cef6d368146103c8578063d81d0a15146103f9578063e985e9c514610415578063f242432a14610445578063f2fde38b1461046157610157565b80636d73e66914610314578063715018a61461033057806383ca4b6f1461033a5780638c7ea24b146103565780638da5cb5b14610372578063a22cb4651461039057610157565b806324d7806c1161011557806324d7806c146102425780632d345670146102725780632eb2c2d61461028e57806331ae450b146102aa5780634e1273f4146102c857806351cff8d9146102f857610157565b8062fdd58e1461015c57806301ffc9a71461018c57806302fe5305146101bc57806306fdde03146101d85780630e89341c146101f6578063156e29f614610226575b600080fd5b61017660048036038101906101719190612e7c565b61047d565b6040516101839190612ecb565b60405180910390f35b6101a660048036038101906101a19190612f3e565b610546565b6040516101b39190612f86565b60405180910390f35b6101d660048036038101906101d19190613006565b6105e0565b005b6101e0610686565b6040516101ed91906130ec565b60405180910390f35b610210600480360381019061020b919061310e565b610718565b60405161021d91906130ec565b60405180910390f35b610240600480360381019061023b919061313b565b61074c565b005b61025c6004803603810190610257919061318e565b610822565b6040516102699190612f86565b60405180910390f35b61028c6004803603810190610287919061318e565b61087c565b005b6102a860048036038101906102a391906133ae565b610910565b005b6102b26109b1565b6040516102bf919061353b565b60405180910390f35b6102e260048036038101906102dd9190613620565b610a93565b6040516102ef9190613756565b60405180910390f35b610312600480360381019061030d919061318e565b610bac565b005b61032e6004803603810190610329919061318e565b610c86565b005b610338610d19565b005b610354600480360381019061034f9190613778565b610d2d565b005b610370600480360381019061036b919061382e565b610d3c565b005b61037a610e18565b604051610387919061387d565b60405180910390f35b6103aa60048036038101906103a591906138c4565b610e41565b005b6103c660048036038101906103c19190613904565b610e57565b005b6103e260048036038101906103dd919061310e565b610e66565b6040516103f0929190613944565b60405180910390f35b610413600480360381019061040e919061396d565b610f12565b005b61042f600480360381019061042a91906139f8565b610fe8565b60405161043c9190612f86565b60405180910390f35b61045f600480360381019061045a9190613a38565b61107c565b005b61047b6004803603810190610476919061318e565b61111d565b005b60008073ffffffffffffffffffffffffffffffffffffffff168373ffffffffffffffffffffffffffffffffffffffff16036104ed576040517f08c379a00000000000000000000000000000000000000000000000000000000081526004016104e490613b41565b60405180910390fd5b6001600083815260200190815260200160002060008473ffffffffffffffffffffffffffffffffffffffff1673ffffffffffffffffffffffffffffffffffffffff16815260200190815260200160002054905092915050565b6000610551826111a0565b8061056157506105608261121a565b5b806105c957507f2a55205a000000000000000000000000000000000000000000000000000000007bffffffffffffffffffffffffffffffffffffffffffffffffffffffff1916827bffffffffffffffffffffffffffffffffffffffffffffffffffffffff1916145b806105d957506105d8826111a0565b5b9050919050565b3373ffffffffffffffffffffffffffffffffffffffff166105ff610e18565b73ffffffffffffffffffffffffffffffffffffffff16148061063157506106303360046112fc90919063ffffffff16565b5b610670576040517f08c379a000000000000000000000000000000000000000000000000000000000815260040161066790613bd3565b60405180910390fd5b818160089190610681929190612d31565b505050565b60606009805461069590613c22565b80601f01602080910402602001604051908101604052809291908181526020018280546106c190613c22565b801561070e5780601f106106e35761010080835404028352916020019161070e565b820191906000526020600020905b8154815290600101906020018083116106f157829003601f168201915b5050505050905090565b606060086107258361132c565b604051602001610736929190613d6f565b6040516020818303038152906040529050919050565b3373ffffffffffffffffffffffffffffffffffffffff1661076b610e18565b73ffffffffffffffffffffffffffffffffffffffff16148061079d575061079c3360046112fc90919063ffffffff16565b5b6107dc576040517f08c379a00000000000000000000000000000000000000000000000000000000081526004016107d390613bd3565b60405180910390fd5b61081d8383836040518060400160405280600381526020017f307830000000000000000000000000000000000000000000000000000000000081525061148c565b505050565b60008173ffffffffffffffffffffffffffffffffffffffff16610843610e18565b73ffffffffffffffffffffffffffffffffffffffff16148061087557506108748260046112fc90919063ffffffff16565b5b9050919050565b61088461163d565b6108988160046112fc90919063ffffffff16565b1561090d573373ffffffffffffffffffffffffffffffffffffffff168173ffffffffffffffffffffffffffffffffffffffff167f7c0c3c84c67c85fcac635147348bfe374c24a1a93d0366d1cfe9d8853cbf89d560405160405180910390a361090b8160046116bb90919063ffffffff16565b505b50565b6109186116eb565b73ffffffffffffffffffffffffffffffffffffffff168573ffffffffffffffffffffffffffffffffffffffff16148061095e575061095d856109586116eb565b610fe8565b5b61099d576040517f08c379a000000000000000000000000000000000000000000000000000000000815260040161099490613e10565b60405180910390fd5b6109aa85858585856116f3565b5050505050565b60606109bd6004611a17565b67ffffffffffffffff8111156109d6576109d56131bb565b5b604051908082528060200260200182016040528015610a045781602001602082028036833780820191505090505b50905060005b610a146004611a17565b811015610a8f57610a2f816004611a2c90919063ffffffff16565b828281518110610a4257610a41613e30565b5b602002602001019073ffffffffffffffffffffffffffffffffffffffff16908173ffffffffffffffffffffffffffffffffffffffff16815250508080610a8790613e8e565b915050610a0a565b5090565b60608151835114610ad9576040517f08c379a0000000000000000000000000000000000000000000000000000000008152600401610ad090613f48565b60405180910390fd5b6000835167ffffffffffffffff811115610af657610af56131bb565b5b604051908082528060200260200182016040528015610b245781602001602082028036833780820191505090505b50905060005b8451811015610ba157610b71858281518110610b4957610b48613e30565b5b6020026020010151858381518110610b6457610b63613e30565b5b602002602001015161047d565b828281518110610b8457610b83613e30565b5b60200260200101818152505080610b9a90613e8e565b9050610b2a565b508091505092915050565b3373ffffffffffffffffffffffffffffffffffffffff16610bcb610e18565b73ffffffffffffffffffffffffffffffffffffffff161480610bfd5750610bfc3360046112fc90919063ffffffff16565b5b610c3c576040517f08c379a0000000000000000000000000000000000000000000000000000000008152600401610c3390613bd3565b60405180910390fd5b8073ffffffffffffffffffffffffffffffffffffffff166108fc479081150290604051600060405180830381858888f19350505050158015610c82573d6000803e3d6000fd5b5050565b610c8e61163d565b610ca28160046112fc90919063ffffffff16565b610d16573373ffffffffffffffffffffffffffffffffffffffff168173ffffffffffffffffffffffffffffffffffffffff167f7e1a1a08d52e4ba0e21554733d66165fd5151f99460116223d9e3a608eec5cb160405160405180910390a3610d14816004611a4690919063ffffffff16565b505b50565b610d2161163d565b610d2b6000611a76565b565b610d38338383611b3a565b5050565b3373ffffffffffffffffffffffffffffffffffffffff16610d5b610e18565b73ffffffffffffffffffffffffffffffffffffffff161480610d8d5750610d8c3360046112fc90919063ffffffff16565b5b610dcc576040517f08c379a0000000000000000000000000000000000000000000000000000000008152600401610dc390613bd3565b60405180910390fd5b81600760006101000a81548173ffffffffffffffffffffffffffffffffffffffff021916908373ffffffffffffffffffffffffffffffffffffffff160217905550806006819055505050565b60008060009054906101000a900473ffffffffffffffffffffffffffffffffffffffff16905090565b610e53610e4c6116eb565b8383611e0a565b5050565b610e62338383611f76565b5050565b600080600073ffffffffffffffffffffffffffffffffffffffff16600760009054906101000a900473ffffffffffffffffffffffffffffffffffffffff1673ffffffffffffffffffffffffffffffffffffffff1614610f0557600760009054906101000a900473ffffffffffffffffffffffffffffffffffffffff16606460065485610ef29190613f68565b610efc9190613ff1565b91509150610f0d565b600080915091505b915091565b3373ffffffffffffffffffffffffffffffffffffffff16610f31610e18565b73ffffffffffffffffffffffffffffffffffffffff161480610f635750610f623360046112fc90919063ffffffff16565b5b610fa2576040517f08c379a0000000000000000000000000000000000000000000000000000000008152600401610f9990613bd3565b60405180910390fd5b610fe38383836040518060400160405280600381526020017f30783000000000000000000000000000000000000000000000000000000000008152506121be565b505050565b6000600260008473ffffffffffffffffffffffffffffffffffffffff1673ffffffffffffffffffffffffffffffffffffffff16815260200190815260200160002060008373ffffffffffffffffffffffffffffffffffffffff1673ffffffffffffffffffffffffffffffffffffffff16815260200190815260200160002060009054906101000a900460ff16905092915050565b6110846116eb565b73ffffffffffffffffffffffffffffffffffffffff168573ffffffffffffffffffffffffffffffffffffffff1614806110ca57506110c9856110c46116eb565b610fe8565b5b611109576040517f08c379a000000000000000000000000000000000000000000000000000000000815260040161110090613e10565b60405180910390fd5b61111685858585856123eb565b5050505050565b61112561163d565b600073ffffffffffffffffffffffffffffffffffffffff168173ffffffffffffffffffffffffffffffffffffffff1603611194576040517f08c379a000000000000000000000000000000000000000000000000000000000815260040161118b90614094565b60405180910390fd5b61119d81611a76565b50565b60007f553e757e000000000000000000000000000000000000000000000000000000007bffffffffffffffffffffffffffffffffffffffffffffffffffffffff1916827bffffffffffffffffffffffffffffffffffffffffffffffffffffffff1916148061121357506112128261121a565b5b9050919050565b60007fd9b67a26000000000000000000000000000000000000000000000000000000007bffffffffffffffffffffffffffffffffffffffffffffffffffffffff1916827bffffffffffffffffffffffffffffffffffffffffffffffffffffffff191614806112e557507f0e89341c000000000000000000000000000000000000000000000000000000007bffffffffffffffffffffffffffffffffffffffffffffffffffffffff1916827bffffffffffffffffffffffffffffffffffffffffffffffffffffffff1916145b806112f557506112f482612689565b5b9050919050565b6000611324836000018373ffffffffffffffffffffffffffffffffffffffff1660001b6126f3565b905092915050565b606060008203611373576040518060400160405280600181526020017f30000000000000000000000000000000000000000000000000000000000000008152509050611487565b600082905060005b600082146113a557808061138e90613e8e565b915050600a8261139e9190613ff1565b915061137b565b60008167ffffffffffffffff8111156113c1576113c06131bb565b5b6040519080825280601f01601f1916602001820160405280156113f35781602001600182028036833780820191505090505b5090505b600085146114805760018261140c91906140b4565b9150600a8561141b91906140e8565b60306114279190614119565b60f81b81838151811061143d5761143c613e30565b5b60200101907effffffffffffffffffffffffffffffffffffffffffffffffffffffffffffff1916908160001a905350600a856114799190613ff1565b94506113f7565b8093505050505b919050565b600073ffffffffffffffffffffffffffffffffffffffff168473ffffffffffffffffffffffffffffffffffffffff16036114fb576040517f08c379a00000000000000000000000000000000000000000000000000000000081526004016114f2906141e1565b60405180910390fd5b60006115056116eb565b9050600061151285612716565b9050600061151f85612716565b905061153083600089858589612790565b846001600088815260200190815260200160002060008973ffffffffffffffffffffffffffffffffffffffff1673ffffffffffffffffffffffffffffffffffffffff16815260200190815260200160002060008282546115909190614119565b925050819055508673ffffffffffffffffffffffffffffffffffffffff16600073ffffffffffffffffffffffffffffffffffffffff168473ffffffffffffffffffffffffffffffffffffffff167fc3d58168c5ae7397731d063d5bbf3d657854427343f4c083240f7aacaa2d0f62898960405161160e929190614201565b60405180910390a461162583600089858589612798565b611634836000898989896127a0565b50505050505050565b6116456116eb565b73ffffffffffffffffffffffffffffffffffffffff16611663610e18565b73ffffffffffffffffffffffffffffffffffffffff16146116b9576040517f08c379a00000000000000000000000000000000000000000000000000000000081526004016116b090614276565b60405180910390fd5b565b60006116e3836000018373ffffffffffffffffffffffffffffffffffffffff1660001b612977565b905092915050565b600033905090565b8151835114611737576040517f08c379a000000000000000000000000000000000000000000000000000000000815260040161172e90614308565b60405180910390fd5b600073ffffffffffffffffffffffffffffffffffffffff168473ffffffffffffffffffffffffffffffffffffffff16036117a6576040517f08c379a000000000000000000000000000000000000000000000000000000000815260040161179d9061439a565b60405180910390fd5b60006117b06116eb565b90506117c0818787878787612790565b60005b84518110156119745760008582815181106117e1576117e0613e30565b5b602002602001015190506000858381518110611800576117ff613e30565b5b6020026020010151905060006001600084815260200190815260200160002060008b73ffffffffffffffffffffffffffffffffffffffff1673ffffffffffffffffffffffffffffffffffffffff168152602001908152602001600020549050818110156118a2576040517f08c379a00000000000000000000000000000000000000000000000000000000081526004016118999061442c565b60405180910390fd5b8181036001600085815260200190815260200160002060008c73ffffffffffffffffffffffffffffffffffffffff1673ffffffffffffffffffffffffffffffffffffffff16815260200190815260200160002081905550816001600085815260200190815260200160002060008b73ffffffffffffffffffffffffffffffffffffffff1673ffffffffffffffffffffffffffffffffffffffff16815260200190815260200160002060008282546119599190614119565b925050819055505050508061196d90613e8e565b90506117c3565b508473ffffffffffffffffffffffffffffffffffffffff168673ffffffffffffffffffffffffffffffffffffffff168273ffffffffffffffffffffffffffffffffffffffff167f4a39dc06d4c0dbc64b70af90fd698a233a518aa5d07e595d983b8c0526c8f7fb87876040516119eb92919061444c565b60405180910390a4611a01818787878787612798565b611a0f818787878787612a8b565b505050505050565b6000611a2582600001612c62565b9050919050565b6000611a3b8360000183612c73565b60001c905092915050565b6000611a6e836000018373ffffffffffffffffffffffffffffffffffffffff1660001b612c9e565b905092915050565b60008060009054906101000a900473ffffffffffffffffffffffffffffffffffffffff169050816000806101000a81548173ffffffffffffffffffffffffffffffffffffffff021916908373ffffffffffffffffffffffffffffffffffffffff1602179055508173ffffffffffffffffffffffffffffffffffffffff168173ffffffffffffffffffffffffffffffffffffffff167f8be0079c531659141344cd1fd0a4f28419497f9722a3daafe3b4186f6b6457e060405160405180910390a35050565b600073ffffffffffffffffffffffffffffffffffffffff168373ffffffffffffffffffffffffffffffffffffffff1603611ba9576040517f08c379a0000000000000000000000000000000000000000000000000000000008152600401611ba0906144f5565b60405180910390fd5b8051825114611bed576040517f08c379a0000000000000000000000000000000000000000000000000000000008152600401611be490614308565b60405180910390fd5b6000611bf76116eb565b9050611c1781856000868660405180602001604052806000815250612790565b60005b8351811015611d66576000848281518110611c3857611c37613e30565b5b602002602001015190506000848381518110611c5757611c56613e30565b5b6020026020010151905060006001600084815260200190815260200160002060008973ffffffffffffffffffffffffffffffffffffffff1673ffffffffffffffffffffffffffffffffffffffff16815260200190815260200160002054905081811015611cf9576040517f08c379a0000000000000000000000000000000000000000000000000000000008152600401611cf090614587565b60405180910390fd5b8181036001600085815260200190815260200160002060008a73ffffffffffffffffffffffffffffffffffffffff1673ffffffffffffffffffffffffffffffffffffffff168152602001908152602001600020819055505050508080611d5e90613e8e565b915050611c1a565b50600073ffffffffffffffffffffffffffffffffffffffff168473ffffffffffffffffffffffffffffffffffffffff168273ffffffffffffffffffffffffffffffffffffffff167f4a39dc06d4c0dbc64b70af90fd698a233a518aa5d07e595d983b8c0526c8f7fb8686604051611dde92919061444c565b60405180910390a4611e0481856000868660405180602001604052806000815250612798565b50505050565b8173ffffffffffffffffffffffffffffffffffffffff168373ffffffffffffffffffffffffffffffffffffffff1603611e78576040517f08c379a0000000000000000000000000000000000000000000000000000000008152600401611e6f90614619565b60405180910390fd5b80600260008573ffffffffffffffffffffffffffffffffffffffff1673ffffffffffffffffffffffffffffffffffffffff16815260200190815260200160002060008473ffffffffffffffffffffffffffffffffffffffff1673ffffffffffffffffffffffffffffffffffffffff16815260200190815260200160002060006101000a81548160ff0219169083151502179055508173ffffffffffffffffffffffffffffffffffffffff168373ffffffffffffffffffffffffffffffffffffffff167f17307eab39ab6107e8899845ad3d59bd9653f200f220920489ca2b5937696c3183604051611f699190612f86565b60405180910390a3505050565b600073ffffffffffffffffffffffffffffffffffffffff168373ffffffffffffffffffffffffffffffffffffffff1603611fe5576040517f08c379a0000000000000000000000000000000000000000000000000000000008152600401611fdc906144f5565b60405180910390fd5b6000611fef6116eb565b90506000611ffc84612716565b9050600061200984612716565b905061202983876000858560405180602001604052806000815250612790565b60006001600087815260200190815260200160002060008873ffffffffffffffffffffffffffffffffffffffff1673ffffffffffffffffffffffffffffffffffffffff168152602001908152602001600020549050848110156120c1576040517f08c379a00000000000000000000000000000000000000000000000000000000081526004016120b890614587565b60405180910390fd5b8481036001600088815260200190815260200160002060008973ffffffffffffffffffffffffffffffffffffffff1673ffffffffffffffffffffffffffffffffffffffff16815260200190815260200160002081905550600073ffffffffffffffffffffffffffffffffffffffff168773ffffffffffffffffffffffffffffffffffffffff168573ffffffffffffffffffffffffffffffffffffffff167fc3d58168c5ae7397731d063d5bbf3d657854427343f4c083240f7aacaa2d0f62898960405161218f929190614201565b60405180910390a46121b584886000868660405180602001604052806000815250612798565b50505050505050565b600073ffffffffffffffffffffffffffffffffffffffff168473ffffffffffffffffffffffffffffffffffffffff160361222d576040517f08c379a0000000000000000000000000000000000000000000000000000000008152600401612224906141e1565b60405180910390fd5b8151835114612271576040517f08c379a000000000000000000000000000000000000000000000000000000000815260040161226890614308565b60405180910390fd5b600061227b6116eb565b905061228c81600087878787612790565b60005b8451811015612346578381815181106122ab576122aa613e30565b5b6020026020010151600160008784815181106122ca576122c9613e30565b5b6020026020010151815260200190815260200160002060008873ffffffffffffffffffffffffffffffffffffffff1673ffffffffffffffffffffffffffffffffffffffff168152602001908152602001600020600082825461232c9190614119565b92505081905550808061233e90613e8e565b91505061228f565b508473ffffffffffffffffffffffffffffffffffffffff16600073ffffffffffffffffffffffffffffffffffffffff168273ffffffffffffffffffffffffffffffffffffffff167f4a39dc06d4c0dbc64b70af90fd698a233a518aa5d07e595d983b8c0526c8f7fb87876040516123be92919061444c565b60405180910390a46123d581600087878787612798565b6123e481600087878787612a8b565b5050505050565b600073ffffffffffffffffffffffffffffffffffffffff168473ffffffffffffffffffffffffffffffffffffffff160361245a576040517f08c379a00000000000000000000000000000000000000000000000000000000081526004016124519061439a565b60405180910390fd5b60006124646116eb565b9050600061247185612716565b9050600061247e85612716565b905061248e838989858589612790565b60006001600088815260200190815260200160002060008a73ffffffffffffffffffffffffffffffffffffffff1673ffffffffffffffffffffffffffffffffffffffff16815260200190815260200160002054905085811015612526576040517f08c379a000000000000000000000000000000000000000000000000000000000815260040161251d9061442c565b60405180910390fd5b8581036001600089815260200190815260200160002060008b73ffffffffffffffffffffffffffffffffffffffff1673ffffffffffffffffffffffffffffffffffffffff16815260200190815260200160002081905550856001600089815260200190815260200160002060008a73ffffffffffffffffffffffffffffffffffffffff1673ffffffffffffffffffffffffffffffffffffffff16815260200190815260200160002060008282546125dd9190614119565b925050819055508773ffffffffffffffffffffffffffffffffffffffff168973ffffffffffffffffffffffffffffffffffffffff168573ffffffffffffffffffffffffffffffffffffffff167fc3d58168c5ae7397731d063d5bbf3d657854427343f4c083240f7aacaa2d0f628a8a60405161265a929190614201565b60405180910390a4612670848a8a86868a612798565b61267e848a8a8a8a8a6127a0565b505050505050505050565b60007f01ffc9a7000000000000000000000000000000000000000000000000000000007bffffffffffffffffffffffffffffffffffffffffffffffffffffffff1916827bffffffffffffffffffffffffffffffffffffffffffffffffffffffff1916149050919050565b600080836001016000848152602001908152602001600020541415905092915050565b60606000600167ffffffffffffffff811115612735576127346131bb565b5b6040519080825280602002602001820160405280156127635781602001602082028036833780820191505090505b509050828160008151811061277b5761277a613e30565b5b60200260200101818152505080915050919050565b505050505050565b505050505050565b6127bf8473ffffffffffffffffffffffffffffffffffffffff16612d0e565b1561296f578373ffffffffffffffffffffffffffffffffffffffff1663f23a6e6187878686866040518663ffffffff1660e01b815260040161280595949392919061468e565b6020604051808303816000875af192505050801561284157506040513d601f19601f8201168201806040525081019061283e91906146fd565b60015b6128e65761284d614737565b806308c379a0036128a95750612861614759565b8061286c57506128ab565b806040517f08c379a00000000000000000000000000000000000000000000000000000000081526004016128a091906130ec565b60405180910390fd5b505b6040517f08c379a00000000000000000000000000000000000000000000000000000000081526004016128dd9061485b565b60405180910390fd5b63f23a6e6160e01b7bffffffffffffffffffffffffffffffffffffffffffffffffffffffff1916817bffffffffffffffffffffffffffffffffffffffffffffffffffffffff19161461296d576040517f08c379a0000000000000000000000000000000000000000000000000000000008152600401612964906148ed565b60405180910390fd5b505b505050505050565b60008083600101600084815260200190815260200160002054905060008114612a7f5760006001826129a991906140b4565b90506000600186600001805490506129c191906140b4565b9050818114612a305760008660000182815481106129e2576129e1613e30565b5b9060005260206000200154905080876000018481548110612a0657612a05613e30565b5b90600052602060002001819055508387600101600083815260200190815260200160002081905550505b85600001805480612a4457612a4361490d565b5b600190038181906000526020600020016000905590558560010160008681526020019081526020016000206000905560019350505050612a85565b60009150505b92915050565b612aaa8473ffffffffffffffffffffffffffffffffffffffff16612d0e565b15612c5a578373ffffffffffffffffffffffffffffffffffffffff1663bc197c8187878686866040518663ffffffff1660e01b8152600401612af095949392919061493c565b6020604051808303816000875af1925050508015612b2c57506040513d601f19601f82011682018060405250810190612b2991906146fd565b60015b612bd157612b38614737565b806308c379a003612b945750612b4c614759565b80612b575750612b96565b806040517f08c379a0000000000000000000000000000000000000000000000000000000008152600401612b8b91906130ec565b60405180910390fd5b505b6040517f08c379a0000000000000000000000000000000000000000000000000000000008152600401612bc89061485b565b60405180910390fd5b63bc197c8160e01b7bffffffffffffffffffffffffffffffffffffffffffffffffffffffff1916817bffffffffffffffffffffffffffffffffffffffffffffffffffffffff191614612c58576040517f08c379a0000000000000000000000000000000000000000000000000000000008152600401612c4f906148ed565b60405180910390fd5b505b505050505050565b600081600001805490509050919050565b6000826000018281548110612c8b57612c8a613e30565b5b9060005260206000200154905092915050565b6000612caa83836126f3565b612d03578260000182908060018154018082558091505060019003906000526020600020016000909190919091505582600001805490508360010160008481526020019081526020016000208190555060019050612d08565b600090505b92915050565b6000808273ffffffffffffffffffffffffffffffffffffffff163b119050919050565b828054612d3d90613c22565b90600052602060002090601f016020900481019282612d5f5760008555612da6565b82601f10612d7857803560ff1916838001178555612da6565b82800160010185558215612da6579182015b82811115612da5578235825591602001919060010190612d8a565b5b509050612db39190612db7565b5090565b5b80821115612dd0576000816000905550600101612db8565b5090565b6000604051905090565b600080fd5b600080fd5b600073ffffffffffffffffffffffffffffffffffffffff82169050919050565b6000612e1382612de8565b9050919050565b612e2381612e08565b8114612e2e57600080fd5b50565b600081359050612e4081612e1a565b92915050565b6000819050919050565b612e5981612e46565b8114612e6457600080fd5b50565b600081359050612e7681612e50565b92915050565b60008060408385031215612e9357612e92612dde565b5b6000612ea185828601612e31565b9250506020612eb285828601612e67565b9150509250929050565b612ec581612e46565b82525050565b6000602082019050612ee06000830184612ebc565b92915050565b60007fffffffff0000000000000000000000000000000000000000000000000000000082169050919050565b612f1b81612ee6565b8114612f2657600080fd5b50565b600081359050612f3881612f12565b92915050565b600060208284031215612f5457612f53612dde565b5b6000612f6284828501612f29565b91505092915050565b60008115159050919050565b612f8081612f6b565b82525050565b6000602082019050612f9b6000830184612f77565b92915050565b600080fd5b600080fd5b600080fd5b60008083601f840112612fc657612fc5612fa1565b5b8235905067ffffffffffffffff811115612fe357612fe2612fa6565b5b602083019150836001820283011115612fff57612ffe612fab565b5b9250929050565b6000806020838503121561301d5761301c612dde565b5b600083013567ffffffffffffffff81111561303b5761303a612de3565b5b61304785828601612fb0565b92509250509250929050565b600081519050919050565b600082825260208201905092915050565b60005b8381101561308d578082015181840152602081019050613072565b8381111561309c576000848401525b50505050565b6000601f19601f8301169050919050565b60006130be82613053565b6130c8818561305e565b93506130d881856020860161306f565b6130e1816130a2565b840191505092915050565b6000602082019050818103600083015261310681846130b3565b905092915050565b60006020828403121561312457613123612dde565b5b600061313284828501612e67565b91505092915050565b60008060006060848603121561315457613153612dde565b5b600061316286828701612e31565b935050602061317386828701612e67565b925050604061318486828701612e67565b9150509250925092565b6000602082840312156131a4576131a3612dde565b5b60006131b284828501612e31565b91505092915050565b7f4e487b7100000000000000000000000000000000000000000000000000000000600052604160045260246000fd5b6131f3826130a2565b810181811067ffffffffffffffff82111715613212576132116131bb565b5b80604052505050565b6000613225612dd4565b905061323182826131ea565b919050565b600067ffffffffffffffff821115613251576132506131bb565b5b602082029050602081019050919050565b600061327561327084613236565b61321b565b9050808382526020820190506020840283018581111561329857613297612fab565b5b835b818110156132c157806132ad8882612e67565b84526020840193505060208101905061329a565b5050509392505050565b600082601f8301126132e0576132df612fa1565b5b81356132f0848260208601613262565b91505092915050565b600080fd5b600067ffffffffffffffff821115613319576133186131bb565b5b613322826130a2565b9050602081019050919050565b82818337600083830152505050565b600061335161334c846132fe565b61321b565b90508281526020810184848401111561336d5761336c6132f9565b5b61337884828561332f565b509392505050565b600082601f83011261339557613394612fa1565b5b81356133a584826020860161333e565b91505092915050565b600080600080600060a086880312156133ca576133c9612dde565b5b60006133d888828901612e31565b95505060206133e988828901612e31565b945050604086013567ffffffffffffffff81111561340a57613409612de3565b5b613416888289016132cb565b935050606086013567ffffffffffffffff81111561343757613436612de3565b5b613443888289016132cb565b925050608086013567ffffffffffffffff81111561346457613463612de3565b5b61347088828901613380565b9150509295509295909350565b600081519050919050565b600082825260208201905092915050565b6000819050602082019050919050565b6134b281612e08565b82525050565b60006134c483836134a9565b60208301905092915050565b6000602082019050919050565b60006134e88261347d565b6134f28185613488565b93506134fd83613499565b8060005b8381101561352e57815161351588826134b8565b9750613520836134d0565b925050600181019050613501565b5085935050505092915050565b6000602082019050818103600083015261355581846134dd565b905092915050565b600067ffffffffffffffff821115613578576135776131bb565b5b602082029050602081019050919050565b600061359c6135978461355d565b61321b565b905080838252602082019050602084028301858111156135bf576135be612fab565b5b835b818110156135e857806135d48882612e31565b8452602084019350506020810190506135c1565b5050509392505050565b600082601f83011261360757613606612fa1565b5b8135613617848260208601613589565b91505092915050565b6000806040838503121561363757613636612dde565b5b600083013567ffffffffffffffff81111561365557613654612de3565b5b613661858286016135f2565b925050602083013567ffffffffffffffff81111561368257613681612de3565b5b61368e858286016132cb565b9150509250929050565b600081519050919050565b600082825260208201905092915050565b6000819050602082019050919050565b6136cd81612e46565b82525050565b60006136df83836136c4565b60208301905092915050565b6000602082019050919050565b600061370382613698565b61370d81856136a3565b9350613718836136b4565b8060005b8381101561374957815161373088826136d3565b975061373b836136eb565b92505060018101905061371c565b5085935050505092915050565b6000602082019050818103600083015261377081846136f8565b905092915050565b6000806040838503121561378f5761378e612dde565b5b600083013567ffffffffffffffff8111156137ad576137ac612de3565b5b6137b9858286016132cb565b925050602083013567ffffffffffffffff8111156137da576137d9612de3565b5b6137e6858286016132cb565b9150509250929050565b60006137fb82612de8565b9050919050565b61380b816137f0565b811461381657600080fd5b50565b60008135905061382881613802565b92915050565b6000806040838503121561384557613844612dde565b5b600061385385828601613819565b925050602061386485828601612e67565b9150509250929050565b61387781612e08565b82525050565b6000602082019050613892600083018461386e565b92915050565b6138a181612f6b565b81146138ac57600080fd5b50565b6000813590506138be81613898565b92915050565b600080604083850312156138db576138da612dde565b5b60006138e985828601612e31565b92505060206138fa858286016138af565b9150509250929050565b6000806040838503121561391b5761391a612dde565b5b600061392985828601612e67565b925050602061393a85828601612e67565b9150509250929050565b6000604082019050613959600083018561386e565b6139666020830184612ebc565b9392505050565b60008060006060848603121561398657613985612dde565b5b600061399486828701612e31565b935050602084013567ffffffffffffffff8111156139b5576139b4612de3565b5b6139c1868287016132cb565b925050604084013567ffffffffffffffff8111156139e2576139e1612de3565b5b6139ee868287016132cb565b9150509250925092565b60008060408385031215613a0f57613a0e612dde565b5b6000613a1d85828601612e31565b9250506020613a2e85828601612e31565b9150509250929050565b600080600080600060a08688031215613a5457613a53612dde565b5b6000613a6288828901612e31565b9550506020613a7388828901612e31565b9450506040613a8488828901612e67565b9350506060613a9588828901612e67565b925050608086013567ffffffffffffffff811115613ab657613ab5612de3565b5b613ac288828901613380565b9150509295509295909350565b7f455243313135353a2061646472657373207a65726f206973206e6f742061207660008201527f616c6964206f776e657200000000000000000000000000000000000000000000602082015250565b6000613b2b602a8361305e565b9150613b3682613acf565b604082019050919050565b60006020820190508181036000830152613b5a81613b1e565b9050919050565b7f41646d696e436f6e74726f6c3a204d757374206265206f776e6572206f72206160008201527f646d696e00000000000000000000000000000000000000000000000000000000602082015250565b6000613bbd60248361305e565b9150613bc882613b61565b604082019050919050565b60006020820190508181036000830152613bec81613bb0565b9050919050565b7f4e487b7100000000000000000000000000000000000000000000000000000000600052602260045260246000fd5b60006002820490506001821680613c3a57607f821691505b602082108103613c4d57613c4c613bf3565b5b50919050565b600081905092915050565b60008190508160005260206000209050919050565b60008154613c8081613c22565b613c8a8186613c53565b94506001821660008114613ca55760018114613cb657613ce9565b60ff19831686528186019350613ce9565b613cbf85613c5e565b60005b83811015613ce157815481890152600182019150602081019050613cc2565b838801955050505b50505092915050565b6000613cfd82613053565b613d078185613c53565b9350613d1781856020860161306f565b80840191505092915050565b7f2e6a736f6e000000000000000000000000000000000000000000000000000000600082015250565b6000613d59600583613c53565b9150613d6482613d23565b600582019050919050565b6000613d7b8285613c73565b9150613d878284613cf2565b9150613d9282613d4c565b91508190509392505050565b7f455243313135353a2063616c6c6572206973206e6f7420746f6b656e206f776e60008201527f6572206e6f7220617070726f7665640000000000000000000000000000000000602082015250565b6000613dfa602f8361305e565b9150613e0582613d9e565b604082019050919050565b60006020820190508181036000830152613e2981613ded565b9050919050565b7f4e487b7100000000000000000000000000000000000000000000000000000000600052603260045260246000fd5b7f4e487b7100000000000000000000000000000000000000000000000000000000600052601160045260246000fd5b6000613e9982612e46565b91507fffffffffffffffffffffffffffffffffffffffffffffffffffffffffffffffff8203613ecb57613eca613e5f565b5b600182019050919050565b7f455243313135353a206163636f756e747320616e6420696473206c656e67746860008201527f206d69736d617463680000000000000000000000000000000000000000000000602082015250565b6000613f3260298361305e565b9150613f3d82613ed6565b604082019050919050565b60006020820190508181036000830152613f6181613f25565b9050919050565b6000613f7382612e46565b9150613f7e83612e46565b9250817fffffffffffffffffffffffffffffffffffffffffffffffffffffffffffffffff0483118215151615613fb757613fb6613e5f565b5b828202905092915050565b7f4e487b7100000000000000000000000000000000000000000000000000000000600052601260045260246000fd5b6000613ffc82612e46565b915061400783612e46565b92508261401757614016613fc2565b5b828204905092915050565b7f4f776e61626c653a206e6577206f776e657220697320746865207a65726f206160008201527f6464726573730000000000000000000000000000000000000000000000000000602082015250565b600061407e60268361305e565b915061408982614022565b604082019050919050565b600060208201905081810360008301526140ad81614071565b9050919050565b60006140bf82612e46565b91506140ca83612e46565b9250828210156140dd576140dc613e5f565b5b828203905092915050565b60006140f382612e46565b91506140fe83612e46565b92508261410e5761410d613fc2565b5b828206905092915050565b600061412482612e46565b915061412f83612e46565b9250827fffffffffffffffffffffffffffffffffffffffffffffffffffffffffffffffff0382111561416457614163613e5f565b5b828201905092915050565b7f455243313135353a206d696e7420746f20746865207a65726f2061646472657360008201527f7300000000000000000000000000000000000000000000000000000000000000602082015250565b60006141cb60218361305e565b91506141d68261416f565b604082019050919050565b600060208201905081810360008301526141fa816141be565b9050919050565b60006040820190506142166000830185612ebc565b6142236020830184612ebc565b9392505050565b7f4f776e61626c653a2063616c6c6572206973206e6f7420746865206f776e6572600082015250565b600061426060208361305e565b915061426b8261422a565b602082019050919050565b6000602082019050818103600083015261428f81614253565b9050919050565b7f455243313135353a2069647320616e6420616d6f756e7473206c656e6774682060008201527f6d69736d61746368000000000000000000000000000000000000000000000000602082015250565b60006142f260288361305e565b91506142fd82614296565b604082019050919050565b60006020820190508181036000830152614321816142e5565b9050919050565b7f455243313135353a207472616e7366657220746f20746865207a65726f20616460008201527f6472657373000000000000000000000000000000000000000000000000000000602082015250565b600061438460258361305e565b915061438f82614328565b604082019050919050565b600060208201905081810360008301526143b381614377565b9050919050565b7f455243313135353a20696e73756666696369656e742062616c616e636520666f60008201527f72207472616e7366657200000000000000000000000000000000000000000000602082015250565b6000614416602a8361305e565b9150614421826143ba565b604082019050919050565b6000602082019050818103600083015261444581614409565b9050919050565b6000604082019050818103600083015261446681856136f8565b9050818103602083015261447a81846136f8565b90509392505050565b7f455243313135353a206275726e2066726f6d20746865207a65726f206164647260008201527f6573730000000000000000000000000000000000000000000000000000000000602082015250565b60006144df60238361305e565b91506144ea82614483565b604082019050919050565b6000602082019050818103600083015261450e816144d2565b9050919050565b7f455243313135353a206275726e20616d6f756e7420657863656564732062616c60008201527f616e636500000000000000000000000000000000000000000000000000000000602082015250565b600061457160248361305e565b915061457c82614515565b604082019050919050565b600060208201905081810360008301526145a081614564565b9050919050565b7f455243313135353a2073657474696e6720617070726f76616c2073746174757360008201527f20666f722073656c660000000000000000000000000000000000000000000000602082015250565b600061460360298361305e565b915061460e826145a7565b604082019050919050565b60006020820190508181036000830152614632816145f6565b9050919050565b600081519050919050565b600082825260208201905092915050565b600061466082614639565b61466a8185614644565b935061467a81856020860161306f565b614683816130a2565b840191505092915050565b600060a0820190506146a3600083018861386e565b6146b0602083018761386e565b6146bd6040830186612ebc565b6146ca6060830185612ebc565b81810360808301526146dc8184614655565b90509695505050505050565b6000815190506146f781612f12565b92915050565b60006020828403121561471357614712612dde565b5b6000614721848285016146e8565b91505092915050565b60008160e01c9050919050565b600060033d11156147565760046000803e61475360005161472a565b90505b90565b600060443d106147e65761476b612dd4565b60043d036004823e80513d602482011167ffffffffffffffff821117156147935750506147e6565b808201805167ffffffffffffffff8111156147b157505050506147e6565b80602083010160043d0385018111156147ce5750505050506147e6565b6147dd826020018501866131ea565b82955050505050505b90565b7f455243313135353a207472616e7366657220746f206e6f6e204552433131353560008201527f526563656976657220696d706c656d656e746572000000000000000000000000602082015250565b600061484560348361305e565b9150614850826147e9565b604082019050919050565b6000602082019050818103600083015261487481614838565b9050919050565b7f455243313135353a204552433131353552656365697665722072656a6563746560008201527f6420746f6b656e73000000000000000000000000000000000000000000000000602082015250565b60006148d760288361305e565b91506148e28261487b565b604082019050919050565b60006020820190508181036000830152614906816148ca565b9050919050565b7f4e487b7100000000000000000000000000000000000000000000000000000000600052603160045260246000fd5b600060a082019050614951600083018861386e565b61495e602083018761386e565b818103604083015261497081866136f8565b9050818103606083015261498481856136f8565b905081810360808301526149988184614655565b9050969550505050505056fea2646970667358221220ad18a28a687eb16d8991025d1af1486e3b46c9259544fe3896f7eec1b153208f64736f6c634300080d0033",
  "immutableReferences": {},
  "source": "// SPDX-License-Identifier: MIT\n\npragma solidity >= 0.8.13;\n\nimport \"@openzeppelin/contracts/token/ERC1155/ERC1155.sol\";\nimport \"@manifoldxyz/royalty-registry-solidity/contracts/specs/IEIP2981.sol\";\nimport \"@manifoldxyz/libraries-solidity/contracts/access/AdminControl.sol\";\nimport \"@openzeppelin/contracts/utils/Strings.sol\";\n\ncontract OSContract is ERC1155, AdminControl {\n    \n    uint256 private _royaltyAmount; //in % \n    address payable  private _royalties_recipient;\n    string _uri;\n    string _name;\n\n    \n    constructor () ERC1155(\"\") {\n        _royalties_recipient = payable(msg.sender);\n        _royaltyAmount = 10;\n\n    } \n\n    function supportsInterface(bytes4 interfaceId)\n        public\n        view\n        virtual\n        override(ERC1155, AdminControl)\n        returns (bool)\n    {\n        return\n        AdminControl.supportsInterface(interfaceId) ||\n        ERC1155.supportsInterface(interfaceId) ||\n        interfaceId == type(IEIP2981).interfaceId ||\n        super.supportsInterface(interfaceId);\n    }\n\n    function name() public view returns (string memory) {\n        return _name;\n    }\n\n    function mint( \n        address to,\n        uint256 id,\n        uint256 amount\n    ) external adminRequired{\n        _mint(to, id, amount, \"0x0\");\n    }\n\n    function mintBatch(\n        address to,\n        uint256[] memory ids,\n        uint256[] memory amounts\n    )external adminRequired{\n        _mintBatch(to, ids, amounts, \"0x0\");\n    }\n\n    function setURI(\n        string calldata updatedURI\n    ) external adminRequired{\n        _uri = updatedURI;\n    }\n\n    function uri(uint256 tokenId) public view virtual override returns (string memory) {\n        return string(abi.encodePacked(_uri, Strings.toString(tokenId), \".json\"));\n    }\n\n    function burn(uint256 tokenId, uint256 quantity) public {\n        _burn(msg.sender, tokenId, quantity);\n    }\n\n    function burnBatch(\n        uint256[] memory ids,\n        uint256[] memory amounts\n    )external{\n        _burnBatch(msg.sender, ids, amounts);\n    }\n\n    function setRoyalties(address payable _recipient, uint256 _royaltyPerCent) external adminRequired {\n        _royalties_recipient = _recipient;\n        _royaltyAmount = _royaltyPerCent;\n    }\n\n    function royaltyInfo(uint256 salePrice) external view returns (address, uint256) {\n        if(_royalties_recipient != address(0)){\n            return (_royalties_recipient, (salePrice * _royaltyAmount) / 100 );\n        }\n        return (address(0), 0);\n    }\n\n    function withdraw(address recipient) external adminRequired {\n        payable(recipient).transfer(address(this).balance);\n    }\n\n}",
  "sourcePath": "/Users/bct/Documents/Dev/NFT_dev/MULTIVARIA/contracts/OSContract.sol",
  "compiler": {
    "name": "solc",
    "version": "0.8.13+commit.abaa5c0e.Emscripten.clang"
  },
  "schemaVersion": "3.4.4",
  "updatedAt": "2022-10-10T19:49:15.333Z",
  "devdoc": {
    "kind": "dev",
    "methods": {
      "approveAdmin(address)": {
        "details": "See {IAdminControl-approveAdmin}."
      },
      "balanceOf(address,uint256)": {
        "details": "See {IERC1155-balanceOf}. Requirements: - `account` cannot be the zero address."
      },
      "balanceOfBatch(address[],uint256[])": {
        "details": "See {IERC1155-balanceOfBatch}. Requirements: - `accounts` and `ids` must have the same length."
      },
      "getAdmins()": {
        "details": "See {IAdminControl-getAdmins}."
      },
      "isAdmin(address)": {
        "details": "See {IAdminControl-isAdmin}."
      },
      "isApprovedForAll(address,address)": {
        "details": "See {IERC1155-isApprovedForAll}."
      },
      "owner()": {
        "details": "Returns the address of the current owner."
      },
      "renounceOwnership()": {
        "details": "Leaves the contract without owner. It will not be possible to call `onlyOwner` functions anymore. Can only be called by the current owner. NOTE: Renouncing ownership will leave the contract without an owner, thereby removing any functionality that is only available to the owner."
      },
      "revokeAdmin(address)": {
        "details": "See {IAdminControl-revokeAdmin}."
      },
      "safeBatchTransferFrom(address,address,uint256[],uint256[],bytes)": {
        "details": "See {IERC1155-safeBatchTransferFrom}."
      },
      "safeTransferFrom(address,address,uint256,uint256,bytes)": {
        "details": "See {IERC1155-safeTransferFrom}."
      },
      "setApprovalForAll(address,bool)": {
        "details": "See {IERC1155-setApprovalForAll}."
      },
      "transferOwnership(address)": {
        "details": "Transfers ownership of the contract to a new account (`newOwner`). Can only be called by the current owner."
      }
    },
    "version": 1
  },
  "userdoc": {
    "kind": "user",
    "methods": {},
    "version": 1
  }
}